{
    "_format": "hh-sol-artifact-1",
    "contractName": "SingleMarketGlobalReader",
    "sourceName": "contracts/reader/SingleMarketGlobalReader.sol",
    "abi": [
        {
            "inputs": [
                {
                    "internalType": "contract DataStore",
                    "name": "dataStore",
                    "type": "address"
                },
                {
                    "internalType": "address",
                    "name": "account",
                    "type": "address"
                },
                {
                    "internalType": "uint256",
                    "name": "start",
                    "type": "uint256"
                },
                {
                    "internalType": "uint256",
                    "name": "end",
                    "type": "uint256"
                }
            ],
            "name": "getAccountOrdersForSingleMarket",
            "outputs": [
                {
                    "components": [
                        {
                            "components": [
                                {
                                    "internalType": "address",
                                    "name": "account",
                                    "type": "address"
                                },
                                {
                                    "internalType": "address",
                                    "name": "receiver",
                                    "type": "address"
                                },
                                {
                                    "internalType": "address",
                                    "name": "callbackContract",
                                    "type": "address"
                                },
                                {
                                    "internalType": "address",
                                    "name": "uiFeeReceiver",
                                    "type": "address"
                                },
                                {
                                    "internalType": "address",
                                    "name": "market",
                                    "type": "address"
                                },
                                {
                                    "internalType": "address",
                                    "name": "initialCollateralToken",
                                    "type": "address"
                                },
                                {
                                    "internalType": "address[]",
                                    "name": "swapPath",
                                    "type": "address[]"
                                }
                            ],
                            "internalType": "struct SingleMarketOrder.Addresses",
                            "name": "addresses",
                            "type": "tuple"
                        },
                        {
                            "components": [
                                {
                                    "internalType": "enum SingleMarketOrder.OrderType",
                                    "name": "orderType",
                                    "type": "uint8"
                                },
                                {
                                    "internalType": "enum SingleMarketOrder.DecreasePositionSwapType",
                                    "name": "decreasePositionSwapType",
                                    "type": "uint8"
                                },
                                {
                                    "internalType": "uint256",
                                    "name": "sizeDeltaUsd",
                                    "type": "uint256"
                                },
                                {
                                    "internalType": "uint256",
                                    "name": "initialCollateralDeltaAmount",
                                    "type": "uint256"
                                },
                                {
                                    "internalType": "uint256",
                                    "name": "triggerPrice",
                                    "type": "uint256"
                                },
                                {
                                    "internalType": "uint256",
                                    "name": "acceptablePrice",
                                    "type": "uint256"
                                },
                                {
                                    "internalType": "uint256",
                                    "name": "executionFee",
                                    "type": "uint256"
                                },
                                {
                                    "internalType": "uint256",
                                    "name": "callbackGasLimit",
                                    "type": "uint256"
                                },
                                {
                                    "internalType": "uint256",
                                    "name": "minOutputAmount",
                                    "type": "uint256"
                                },
                                {
                                    "internalType": "uint256",
                                    "name": "updatedAtBlock",
                                    "type": "uint256"
                                }
                            ],
                            "internalType": "struct SingleMarketOrder.Numbers",
                            "name": "numbers",
                            "type": "tuple"
                        },
                        {
                            "components": [
                                {
                                    "internalType": "bool",
                                    "name": "isLong",
                                    "type": "bool"
                                },
                                {
                                    "internalType": "bool",
                                    "name": "shouldUnwrapNativeToken",
                                    "type": "bool"
                                },
                                {
                                    "internalType": "bool",
                                    "name": "isFrozen",
                                    "type": "bool"
                                }
                            ],
                            "internalType": "struct SingleMarketOrder.Flags",
                            "name": "flags",
                            "type": "tuple"
                        }
                    ],
                    "internalType": "struct SingleMarketOrder.Props[]",
                    "name": "",
                    "type": "tuple[]"
                }
            ],
            "stateMutability": "view",
            "type": "function"
        },
        {
            "inputs": [
                {
                    "internalType": "contract DataStore",
                    "name": "dataStore",
                    "type": "address"
                },
                {
                    "internalType": "contract IReferralStorage",
                    "name": "referralStorage",
                    "type": "address"
                },
                {
                    "internalType": "bytes32[]",
                    "name": "positionKeys",
                    "type": "bytes32[]"
                },
                {
                    "components": [
                        {
                            "components": [
                                {
                                    "internalType": "uint256",
                                    "name": "min",
                                    "type": "uint256"
                                },
                                {
                                    "internalType": "uint256",
                                    "name": "max",
                                    "type": "uint256"
                                }
                            ],
                            "internalType": "struct Price.Props",
                            "name": "indexTokenPrice",
                            "type": "tuple"
                        },
                        {
                            "components": [
                                {
                                    "internalType": "uint256",
                                    "name": "min",
                                    "type": "uint256"
                                },
                                {
                                    "internalType": "uint256",
                                    "name": "max",
                                    "type": "uint256"
                                }
                            ],
                            "internalType": "struct Price.Props",
                            "name": "longTokenPrice",
                            "type": "tuple"
                        },
                        {
                            "components": [
                                {
                                    "internalType": "uint256",
                                    "name": "min",
                                    "type": "uint256"
                                },
                                {
                                    "internalType": "uint256",
                                    "name": "max",
                                    "type": "uint256"
                                }
                            ],
                            "internalType": "struct Price.Props",
                            "name": "shortTokenPrice",
                            "type": "tuple"
                        }
                    ],
                    "internalType": "struct SingleMarketUtils.SingleMarketPrices[]",
                    "name": "prices",
                    "type": "tuple[]"
                },
                {
                    "internalType": "address",
                    "name": "uiFeeReceiver",
                    "type": "address"
                }
            ],
            "name": "getAccountPositionInfoListForSingleMarket",
            "outputs": [
                {
                    "components": [
                        {
                            "components": [
                                {
                                    "components": [
                                        {
                                            "internalType": "address",
                                            "name": "account",
                                            "type": "address"
                                        },
                                        {
                                            "internalType": "address",
                                            "name": "market",
                                            "type": "address"
                                        },
                                        {
                                            "internalType": "address",
                                            "name": "collateralToken",
                                            "type": "address"
                                        }
                                    ],
                                    "internalType": "struct SingleMarketPosition.Addresses",
                                    "name": "addresses",
                                    "type": "tuple"
                                },
                                {
                                    "components": [
                                        {
                                            "internalType": "uint256",
                                            "name": "sizeInUsd",
                                            "type": "uint256"
                                        },
                                        {
                                            "internalType": "uint256",
                                            "name": "sizeInTokens",
                                            "type": "uint256"
                                        },
                                        {
                                            "internalType": "uint256",
                                            "name": "collateralAmount",
                                            "type": "uint256"
                                        },
                                        {
                                            "internalType": "uint256",
                                            "name": "borrowingFactor",
                                            "type": "uint256"
                                        },
                                        {
                                            "internalType": "uint256",
                                            "name": "fundingFeeAmountPerSize",
                                            "type": "uint256"
                                        },
                                        {
                                            "internalType": "uint256",
                                            "name": "longTokenClaimableFundingAmountPerSize",
                                            "type": "uint256"
                                        },
                                        {
                                            "internalType": "uint256",
                                            "name": "shortTokenClaimableFundingAmountPerSize",
                                            "type": "uint256"
                                        },
                                        {
                                            "internalType": "uint256",
                                            "name": "increasedAtBlock",
                                            "type": "uint256"
                                        },
                                        {
                                            "internalType": "uint256",
                                            "name": "decreasedAtBlock",
                                            "type": "uint256"
                                        }
                                    ],
                                    "internalType": "struct SingleMarketPosition.Numbers",
                                    "name": "numbers",
                                    "type": "tuple"
                                },
                                {
                                    "components": [
                                        {
                                            "internalType": "bool",
                                            "name": "isLong",
                                            "type": "bool"
                                        }
                                    ],
                                    "internalType": "struct SingleMarketPosition.Flags",
                                    "name": "flags",
                                    "type": "tuple"
                                }
                            ],
                            "internalType": "struct SingleMarketPosition.Props",
                            "name": "position",
                            "type": "tuple"
                        },
                        {
                            "components": [
                                {
                                    "components": [
                                        {
                                            "internalType": "bytes32",
                                            "name": "referralCode",
                                            "type": "bytes32"
                                        },
                                        {
                                            "internalType": "address",
                                            "name": "affiliate",
                                            "type": "address"
                                        },
                                        {
                                            "internalType": "address",
                                            "name": "trader",
                                            "type": "address"
                                        },
                                        {
                                            "internalType": "uint256",
                                            "name": "totalRebateFactor",
                                            "type": "uint256"
                                        },
                                        {
                                            "internalType": "uint256",
                                            "name": "traderDiscountFactor",
                                            "type": "uint256"
                                        },
                                        {
                                            "internalType": "uint256",
                                            "name": "totalRebateAmount",
                                            "type": "uint256"
                                        },
                                        {
                                            "internalType": "uint256",
                                            "name": "traderDiscountAmount",
                                            "type": "uint256"
                                        },
                                        {
                                            "internalType": "uint256",
                                            "name": "affiliateRewardAmount",
                                            "type": "uint256"
                                        }
                                    ],
                                    "internalType": "struct SingleMarketPositionPricingUtils.PositionReferralFees",
                                    "name": "referral",
                                    "type": "tuple"
                                },
                                {
                                    "components": [
                                        {
                                            "internalType": "uint256",
                                            "name": "fundingFeeAmount",
                                            "type": "uint256"
                                        },
                                        {
                                            "internalType": "uint256",
                                            "name": "claimableLongTokenAmount",
                                            "type": "uint256"
                                        },
                                        {
                                            "internalType": "uint256",
                                            "name": "claimableShortTokenAmount",
                                            "type": "uint256"
                                        },
                                        {
                                            "internalType": "uint256",
                                            "name": "latestFundingFeeAmountPerSize",
                                            "type": "uint256"
                                        },
                                        {
                                            "internalType": "uint256",
                                            "name": "latestLongTokenClaimableFundingAmountPerSize",
                                            "type": "uint256"
                                        },
                                        {
                                            "internalType": "uint256",
                                            "name": "latestShortTokenClaimableFundingAmountPerSize",
                                            "type": "uint256"
                                        }
                                    ],
                                    "internalType": "struct SingleMarketPositionPricingUtils.PositionFundingFees",
                                    "name": "funding",
                                    "type": "tuple"
                                },
                                {
                                    "components": [
                                        {
                                            "internalType": "uint256",
                                            "name": "borrowingFeeUsd",
                                            "type": "uint256"
                                        },
                                        {
                                            "internalType": "uint256",
                                            "name": "borrowingFeeAmount",
                                            "type": "uint256"
                                        },
                                        {
                                            "internalType": "uint256",
                                            "name": "borrowingFeeReceiverFactor",
                                            "type": "uint256"
                                        },
                                        {
                                            "internalType": "uint256",
                                            "name": "borrowingFeeAmountForFeeReceiver",
                                            "type": "uint256"
                                        }
                                    ],
                                    "internalType": "struct SingleMarketPositionPricingUtils.PositionBorrowingFees",
                                    "name": "borrowing",
                                    "type": "tuple"
                                },
                                {
                                    "components": [
                                        {
                                            "internalType": "address",
                                            "name": "uiFeeReceiver",
                                            "type": "address"
                                        },
                                        {
                                            "internalType": "uint256",
                                            "name": "uiFeeReceiverFactor",
                                            "type": "uint256"
                                        },
                                        {
                                            "internalType": "uint256",
                                            "name": "uiFeeAmount",
                                            "type": "uint256"
                                        }
                                    ],
                                    "internalType": "struct SingleMarketPositionPricingUtils.PositionUiFees",
                                    "name": "ui",
                                    "type": "tuple"
                                },
                                {
                                    "components": [
                                        {
                                            "internalType": "uint256",
                                            "name": "min",
                                            "type": "uint256"
                                        },
                                        {
                                            "internalType": "uint256",
                                            "name": "max",
                                            "type": "uint256"
                                        }
                                    ],
                                    "internalType": "struct Price.Props",
                                    "name": "collateralTokenPrice",
                                    "type": "tuple"
                                },
                                {
                                    "internalType": "uint256",
                                    "name": "positionFeeFactor",
                                    "type": "uint256"
                                },
                                {
                                    "internalType": "uint256",
                                    "name": "protocolFeeAmount",
                                    "type": "uint256"
                                },
                                {
                                    "internalType": "uint256",
                                    "name": "positionFeeReceiverFactor",
                                    "type": "uint256"
                                },
                                {
                                    "internalType": "uint256",
                                    "name": "feeReceiverAmount",
                                    "type": "uint256"
                                },
                                {
                                    "internalType": "uint256",
                                    "name": "feeAmountForPool",
                                    "type": "uint256"
                                },
                                {
                                    "internalType": "uint256",
                                    "name": "positionFeeAmountForPool",
                                    "type": "uint256"
                                },
                                {
                                    "internalType": "uint256",
                                    "name": "positionFeeAmount",
                                    "type": "uint256"
                                },
                                {
                                    "internalType": "uint256",
                                    "name": "totalCostAmountExcludingFunding",
                                    "type": "uint256"
                                },
                                {
                                    "internalType": "uint256",
                                    "name": "totalCostAmount",
                                    "type": "uint256"
                                }
                            ],
                            "internalType": "struct SingleMarketPositionPricingUtils.PositionFees",
                            "name": "fees",
                            "type": "tuple"
                        },
                        {
                            "components": [
                                {
                                    "internalType": "int256",
                                    "name": "priceImpactUsd",
                                    "type": "int256"
                                },
                                {
                                    "internalType": "uint256",
                                    "name": "priceImpactDiffUsd",
                                    "type": "uint256"
                                },
                                {
                                    "internalType": "uint256",
                                    "name": "executionPrice",
                                    "type": "uint256"
                                }
                            ],
                            "internalType": "struct SingleMarketGlobalReaderPricingUtils.ExecutionPriceResult",
                            "name": "executionPriceResult",
                            "type": "tuple"
                        },
                        {
                            "internalType": "int256",
                            "name": "basePnlUsd",
                            "type": "int256"
                        },
                        {
                            "internalType": "int256",
                            "name": "uncappedBasePnlUsd",
                            "type": "int256"
                        },
                        {
                            "internalType": "int256",
                            "name": "pnlAfterPriceImpactUsd",
                            "type": "int256"
                        }
                    ],
                    "internalType": "struct SingleMarketGlobalReaderUtils.SingleMarketPositionInfo[]",
                    "name": "",
                    "type": "tuple[]"
                }
            ],
            "stateMutability": "view",
            "type": "function"
        },
        {
            "inputs": [
                {
                    "internalType": "contract DataStore",
                    "name": "dataStore",
                    "type": "address"
                },
                {
                    "internalType": "address",
                    "name": "account",
                    "type": "address"
                },
                {
                    "internalType": "uint256",
                    "name": "start",
                    "type": "uint256"
                },
                {
                    "internalType": "uint256",
                    "name": "end",
                    "type": "uint256"
                }
            ],
            "name": "getAccountPositionsForSingleMarket",
            "outputs": [
                {
                    "components": [
                        {
                            "components": [
                                {
                                    "internalType": "address",
                                    "name": "account",
                                    "type": "address"
                                },
                                {
                                    "internalType": "address",
                                    "name": "market",
                                    "type": "address"
                                },
                                {
                                    "internalType": "address",
                                    "name": "collateralToken",
                                    "type": "address"
                                }
                            ],
                            "internalType": "struct SingleMarketPosition.Addresses",
                            "name": "addresses",
                            "type": "tuple"
                        },
                        {
                            "components": [
                                {
                                    "internalType": "uint256",
                                    "name": "sizeInUsd",
                                    "type": "uint256"
                                },
                                {
                                    "internalType": "uint256",
                                    "name": "sizeInTokens",
                                    "type": "uint256"
                                },
                                {
                                    "internalType": "uint256",
                                    "name": "collateralAmount",
                                    "type": "uint256"
                                },
                                {
                                    "internalType": "uint256",
                                    "name": "borrowingFactor",
                                    "type": "uint256"
                                },
                                {
                                    "internalType": "uint256",
                                    "name": "fundingFeeAmountPerSize",
                                    "type": "uint256"
                                },
                                {
                                    "internalType": "uint256",
                                    "name": "longTokenClaimableFundingAmountPerSize",
                                    "type": "uint256"
                                },
                                {
                                    "internalType": "uint256",
                                    "name": "shortTokenClaimableFundingAmountPerSize",
                                    "type": "uint256"
                                },
                                {
                                    "internalType": "uint256",
                                    "name": "increasedAtBlock",
                                    "type": "uint256"
                                },
                                {
                                    "internalType": "uint256",
                                    "name": "decreasedAtBlock",
                                    "type": "uint256"
                                }
                            ],
                            "internalType": "struct SingleMarketPosition.Numbers",
                            "name": "numbers",
                            "type": "tuple"
                        },
                        {
                            "components": [
                                {
                                    "internalType": "bool",
                                    "name": "isLong",
                                    "type": "bool"
                                }
                            ],
                            "internalType": "struct SingleMarketPosition.Flags",
                            "name": "flags",
                            "type": "tuple"
                        }
                    ],
                    "internalType": "struct SingleMarketPosition.Props[]",
                    "name": "",
                    "type": "tuple[]"
                }
            ],
            "stateMutability": "view",
            "type": "function"
        },
        {
            "inputs": [
                {
                    "internalType": "contract DataStore",
                    "name": "dataStore",
                    "type": "address"
                },
                {
                    "internalType": "contract IReferralStorage",
                    "name": "referralStorage",
                    "type": "address"
                },
                {
                    "internalType": "bytes32",
                    "name": "positionKey",
                    "type": "bytes32"
                },
                {
                    "components": [
                        {
                            "components": [
                                {
                                    "internalType": "uint256",
                                    "name": "min",
                                    "type": "uint256"
                                },
                                {
                                    "internalType": "uint256",
                                    "name": "max",
                                    "type": "uint256"
                                }
                            ],
                            "internalType": "struct Price.Props",
                            "name": "indexTokenPrice",
                            "type": "tuple"
                        },
                        {
                            "components": [
                                {
                                    "internalType": "uint256",
                                    "name": "min",
                                    "type": "uint256"
                                },
                                {
                                    "internalType": "uint256",
                                    "name": "max",
                                    "type": "uint256"
                                }
                            ],
                            "internalType": "struct Price.Props",
                            "name": "longTokenPrice",
                            "type": "tuple"
                        },
                        {
                            "components": [
                                {
                                    "internalType": "uint256",
                                    "name": "min",
                                    "type": "uint256"
                                },
                                {
                                    "internalType": "uint256",
                                    "name": "max",
                                    "type": "uint256"
                                }
                            ],
                            "internalType": "struct Price.Props",
                            "name": "shortTokenPrice",
                            "type": "tuple"
                        }
                    ],
                    "internalType": "struct SingleMarketUtils.SingleMarketPrices",
                    "name": "prices",
                    "type": "tuple"
                },
                {
                    "internalType": "uint256",
                    "name": "sizeDeltaUsd",
                    "type": "uint256"
                },
                {
                    "internalType": "address",
                    "name": "uiFeeReceiver",
                    "type": "address"
                },
                {
                    "internalType": "bool",
                    "name": "usePositionSizeAsSizeDeltaUsd",
                    "type": "bool"
                }
            ],
            "name": "getPositionInfoForSingleMarket",
            "outputs": [
                {
                    "components": [
                        {
                            "components": [
                                {
                                    "components": [
                                        {
                                            "internalType": "address",
                                            "name": "account",
                                            "type": "address"
                                        },
                                        {
                                            "internalType": "address",
                                            "name": "market",
                                            "type": "address"
                                        },
                                        {
                                            "internalType": "address",
                                            "name": "collateralToken",
                                            "type": "address"
                                        }
                                    ],
                                    "internalType": "struct SingleMarketPosition.Addresses",
                                    "name": "addresses",
                                    "type": "tuple"
                                },
                                {
                                    "components": [
                                        {
                                            "internalType": "uint256",
                                            "name": "sizeInUsd",
                                            "type": "uint256"
                                        },
                                        {
                                            "internalType": "uint256",
                                            "name": "sizeInTokens",
                                            "type": "uint256"
                                        },
                                        {
                                            "internalType": "uint256",
                                            "name": "collateralAmount",
                                            "type": "uint256"
                                        },
                                        {
                                            "internalType": "uint256",
                                            "name": "borrowingFactor",
                                            "type": "uint256"
                                        },
                                        {
                                            "internalType": "uint256",
                                            "name": "fundingFeeAmountPerSize",
                                            "type": "uint256"
                                        },
                                        {
                                            "internalType": "uint256",
                                            "name": "longTokenClaimableFundingAmountPerSize",
                                            "type": "uint256"
                                        },
                                        {
                                            "internalType": "uint256",
                                            "name": "shortTokenClaimableFundingAmountPerSize",
                                            "type": "uint256"
                                        },
                                        {
                                            "internalType": "uint256",
                                            "name": "increasedAtBlock",
                                            "type": "uint256"
                                        },
                                        {
                                            "internalType": "uint256",
                                            "name": "decreasedAtBlock",
                                            "type": "uint256"
                                        }
                                    ],
                                    "internalType": "struct SingleMarketPosition.Numbers",
                                    "name": "numbers",
                                    "type": "tuple"
                                },
                                {
                                    "components": [
                                        {
                                            "internalType": "bool",
                                            "name": "isLong",
                                            "type": "bool"
                                        }
                                    ],
                                    "internalType": "struct SingleMarketPosition.Flags",
                                    "name": "flags",
                                    "type": "tuple"
                                }
                            ],
                            "internalType": "struct SingleMarketPosition.Props",
                            "name": "position",
                            "type": "tuple"
                        },
                        {
                            "components": [
                                {
                                    "components": [
                                        {
                                            "internalType": "bytes32",
                                            "name": "referralCode",
                                            "type": "bytes32"
                                        },
                                        {
                                            "internalType": "address",
                                            "name": "affiliate",
                                            "type": "address"
                                        },
                                        {
                                            "internalType": "address",
                                            "name": "trader",
                                            "type": "address"
                                        },
                                        {
                                            "internalType": "uint256",
                                            "name": "totalRebateFactor",
                                            "type": "uint256"
                                        },
                                        {
                                            "internalType": "uint256",
                                            "name": "traderDiscountFactor",
                                            "type": "uint256"
                                        },
                                        {
                                            "internalType": "uint256",
                                            "name": "totalRebateAmount",
                                            "type": "uint256"
                                        },
                                        {
                                            "internalType": "uint256",
                                            "name": "traderDiscountAmount",
                                            "type": "uint256"
                                        },
                                        {
                                            "internalType": "uint256",
                                            "name": "affiliateRewardAmount",
                                            "type": "uint256"
                                        }
                                    ],
                                    "internalType": "struct SingleMarketPositionPricingUtils.PositionReferralFees",
                                    "name": "referral",
                                    "type": "tuple"
                                },
                                {
                                    "components": [
                                        {
                                            "internalType": "uint256",
                                            "name": "fundingFeeAmount",
                                            "type": "uint256"
                                        },
                                        {
                                            "internalType": "uint256",
                                            "name": "claimableLongTokenAmount",
                                            "type": "uint256"
                                        },
                                        {
                                            "internalType": "uint256",
                                            "name": "claimableShortTokenAmount",
                                            "type": "uint256"
                                        },
                                        {
                                            "internalType": "uint256",
                                            "name": "latestFundingFeeAmountPerSize",
                                            "type": "uint256"
                                        },
                                        {
                                            "internalType": "uint256",
                                            "name": "latestLongTokenClaimableFundingAmountPerSize",
                                            "type": "uint256"
                                        },
                                        {
                                            "internalType": "uint256",
                                            "name": "latestShortTokenClaimableFundingAmountPerSize",
                                            "type": "uint256"
                                        }
                                    ],
                                    "internalType": "struct SingleMarketPositionPricingUtils.PositionFundingFees",
                                    "name": "funding",
                                    "type": "tuple"
                                },
                                {
                                    "components": [
                                        {
                                            "internalType": "uint256",
                                            "name": "borrowingFeeUsd",
                                            "type": "uint256"
                                        },
                                        {
                                            "internalType": "uint256",
                                            "name": "borrowingFeeAmount",
                                            "type": "uint256"
                                        },
                                        {
                                            "internalType": "uint256",
                                            "name": "borrowingFeeReceiverFactor",
                                            "type": "uint256"
                                        },
                                        {
                                            "internalType": "uint256",
                                            "name": "borrowingFeeAmountForFeeReceiver",
                                            "type": "uint256"
                                        }
                                    ],
                                    "internalType": "struct SingleMarketPositionPricingUtils.PositionBorrowingFees",
                                    "name": "borrowing",
                                    "type": "tuple"
                                },
                                {
                                    "components": [
                                        {
                                            "internalType": "address",
                                            "name": "uiFeeReceiver",
                                            "type": "address"
                                        },
                                        {
                                            "internalType": "uint256",
                                            "name": "uiFeeReceiverFactor",
                                            "type": "uint256"
                                        },
                                        {
                                            "internalType": "uint256",
                                            "name": "uiFeeAmount",
                                            "type": "uint256"
                                        }
                                    ],
                                    "internalType": "struct SingleMarketPositionPricingUtils.PositionUiFees",
                                    "name": "ui",
                                    "type": "tuple"
                                },
                                {
                                    "components": [
                                        {
                                            "internalType": "uint256",
                                            "name": "min",
                                            "type": "uint256"
                                        },
                                        {
                                            "internalType": "uint256",
                                            "name": "max",
                                            "type": "uint256"
                                        }
                                    ],
                                    "internalType": "struct Price.Props",
                                    "name": "collateralTokenPrice",
                                    "type": "tuple"
                                },
                                {
                                    "internalType": "uint256",
                                    "name": "positionFeeFactor",
                                    "type": "uint256"
                                },
                                {
                                    "internalType": "uint256",
                                    "name": "protocolFeeAmount",
                                    "type": "uint256"
                                },
                                {
                                    "internalType": "uint256",
                                    "name": "positionFeeReceiverFactor",
                                    "type": "uint256"
                                },
                                {
                                    "internalType": "uint256",
                                    "name": "feeReceiverAmount",
                                    "type": "uint256"
                                },
                                {
                                    "internalType": "uint256",
                                    "name": "feeAmountForPool",
                                    "type": "uint256"
                                },
                                {
                                    "internalType": "uint256",
                                    "name": "positionFeeAmountForPool",
                                    "type": "uint256"
                                },
                                {
                                    "internalType": "uint256",
                                    "name": "positionFeeAmount",
                                    "type": "uint256"
                                },
                                {
                                    "internalType": "uint256",
                                    "name": "totalCostAmountExcludingFunding",
                                    "type": "uint256"
                                },
                                {
                                    "internalType": "uint256",
                                    "name": "totalCostAmount",
                                    "type": "uint256"
                                }
                            ],
                            "internalType": "struct SingleMarketPositionPricingUtils.PositionFees",
                            "name": "fees",
                            "type": "tuple"
                        },
                        {
                            "components": [
                                {
                                    "internalType": "int256",
                                    "name": "priceImpactUsd",
                                    "type": "int256"
                                },
                                {
                                    "internalType": "uint256",
                                    "name": "priceImpactDiffUsd",
                                    "type": "uint256"
                                },
                                {
                                    "internalType": "uint256",
                                    "name": "executionPrice",
                                    "type": "uint256"
                                }
                            ],
                            "internalType": "struct SingleMarketGlobalReaderPricingUtils.ExecutionPriceResult",
                            "name": "executionPriceResult",
                            "type": "tuple"
                        },
                        {
                            "internalType": "int256",
                            "name": "basePnlUsd",
                            "type": "int256"
                        },
                        {
                            "internalType": "int256",
                            "name": "uncappedBasePnlUsd",
                            "type": "int256"
                        },
                        {
                            "internalType": "int256",
                            "name": "pnlAfterPriceImpactUsd",
                            "type": "int256"
                        }
                    ],
                    "internalType": "struct SingleMarketGlobalReaderUtils.SingleMarketPositionInfo",
                    "name": "",
                    "type": "tuple"
                }
            ],
            "stateMutability": "view",
            "type": "function"
        },
        {
            "inputs": [
                {
                    "internalType": "contract DataStore",
                    "name": "dataStore",
                    "type": "address"
                },
                {
                    "components": [
                        {
                            "internalType": "address",
                            "name": "marketToken",
                            "type": "address"
                        },
                        {
                            "internalType": "address",
                            "name": "indexToken",
                            "type": "address"
                        },
                        {
                            "internalType": "address",
                            "name": "longToken",
                            "type": "address"
                        },
                        {
                            "internalType": "address",
                            "name": "shortToken",
                            "type": "address"
                        }
                    ],
                    "internalType": "struct SingleMarket.Props",
                    "name": "market",
                    "type": "tuple"
                },
                {
                    "components": [
                        {
                            "components": [
                                {
                                    "internalType": "uint256",
                                    "name": "min",
                                    "type": "uint256"
                                },
                                {
                                    "internalType": "uint256",
                                    "name": "max",
                                    "type": "uint256"
                                }
                            ],
                            "internalType": "struct Price.Props",
                            "name": "indexTokenPrice",
                            "type": "tuple"
                        },
                        {
                            "components": [
                                {
                                    "internalType": "uint256",
                                    "name": "min",
                                    "type": "uint256"
                                },
                                {
                                    "internalType": "uint256",
                                    "name": "max",
                                    "type": "uint256"
                                }
                            ],
                            "internalType": "struct Price.Props",
                            "name": "longTokenPrice",
                            "type": "tuple"
                        },
                        {
                            "components": [
                                {
                                    "internalType": "uint256",
                                    "name": "min",
                                    "type": "uint256"
                                },
                                {
                                    "internalType": "uint256",
                                    "name": "max",
                                    "type": "uint256"
                                }
                            ],
                            "internalType": "struct Price.Props",
                            "name": "shortTokenPrice",
                            "type": "tuple"
                        }
                    ],
                    "internalType": "struct SingleMarketUtils.SingleMarketPrices",
                    "name": "prices",
                    "type": "tuple"
                },
                {
                    "internalType": "bytes32",
                    "name": "positionKey",
                    "type": "bytes32"
                },
                {
                    "internalType": "uint256",
                    "name": "sizeDeltaUsd",
                    "type": "uint256"
                }
            ],
            "name": "getPositionPnlUsdForSingleMarket",
            "outputs": [
                {
                    "internalType": "int256",
                    "name": "",
                    "type": "int256"
                },
                {
                    "internalType": "int256",
                    "name": "",
                    "type": "int256"
                },
                {
                    "internalType": "uint256",
                    "name": "",
                    "type": "uint256"
                }
            ],
            "stateMutability": "view",
            "type": "function"
        },
        {
            "inputs": [
                {
                    "internalType": "contract DataStore",
                    "name": "dataStore",
                    "type": "address"
                },
                {
                    "internalType": "address",
                    "name": "key",
                    "type": "address"
                }
            ],
            "name": "getSingleMarket",
            "outputs": [
                {
                    "components": [
                        {
                            "internalType": "address",
                            "name": "marketToken",
                            "type": "address"
                        },
                        {
                            "internalType": "address",
                            "name": "indexToken",
                            "type": "address"
                        },
                        {
                            "internalType": "address",
                            "name": "longToken",
                            "type": "address"
                        },
                        {
                            "internalType": "address",
                            "name": "shortToken",
                            "type": "address"
                        }
                    ],
                    "internalType": "struct SingleMarket.Props",
                    "name": "",
                    "type": "tuple"
                }
            ],
            "stateMutability": "view",
            "type": "function"
        },
        {
            "inputs": [
                {
                    "internalType": "contract DataStore",
                    "name": "dataStore",
                    "type": "address"
                },
                {
                    "internalType": "bytes32",
                    "name": "salt",
                    "type": "bytes32"
                }
            ],
            "name": "getSingleMarketBySalt",
            "outputs": [
                {
                    "components": [
                        {
                            "internalType": "address",
                            "name": "marketToken",
                            "type": "address"
                        },
                        {
                            "internalType": "address",
                            "name": "indexToken",
                            "type": "address"
                        },
                        {
                            "internalType": "address",
                            "name": "longToken",
                            "type": "address"
                        },
                        {
                            "internalType": "address",
                            "name": "shortToken",
                            "type": "address"
                        }
                    ],
                    "internalType": "struct SingleMarket.Props",
                    "name": "",
                    "type": "tuple"
                }
            ],
            "stateMutability": "view",
            "type": "function"
        },
        {
            "inputs": [
                {
                    "internalType": "contract DataStore",
                    "name": "dataStore",
                    "type": "address"
                },
                {
                    "internalType": "bytes32",
                    "name": "key",
                    "type": "bytes32"
                }
            ],
            "name": "getSingleMarketDeposit",
            "outputs": [
                {
                    "components": [
                        {
                            "components": [
                                {
                                    "internalType": "address",
                                    "name": "account",
                                    "type": "address"
                                },
                                {
                                    "internalType": "address",
                                    "name": "receiver",
                                    "type": "address"
                                },
                                {
                                    "internalType": "address",
                                    "name": "callbackContract",
                                    "type": "address"
                                },
                                {
                                    "internalType": "address",
                                    "name": "uiFeeReceiver",
                                    "type": "address"
                                },
                                {
                                    "internalType": "address",
                                    "name": "market",
                                    "type": "address"
                                },
                                {
                                    "internalType": "address",
                                    "name": "initialLongToken",
                                    "type": "address"
                                },
                                {
                                    "internalType": "address",
                                    "name": "initialShortToken",
                                    "type": "address"
                                },
                                {
                                    "internalType": "address[]",
                                    "name": "longTokenSwapPath",
                                    "type": "address[]"
                                },
                                {
                                    "internalType": "address[]",
                                    "name": "shortTokenSwapPath",
                                    "type": "address[]"
                                }
                            ],
                            "internalType": "struct SingleMarketDeposit.Addresses",
                            "name": "addresses",
                            "type": "tuple"
                        },
                        {
                            "components": [
                                {
                                    "internalType": "uint256",
                                    "name": "initialLongTokenAmount",
                                    "type": "uint256"
                                },
                                {
                                    "internalType": "uint256",
                                    "name": "initialShortTokenAmount",
                                    "type": "uint256"
                                },
                                {
                                    "internalType": "uint256",
                                    "name": "minMarketTokens",
                                    "type": "uint256"
                                },
                                {
                                    "internalType": "uint256",
                                    "name": "updatedAtBlock",
                                    "type": "uint256"
                                },
                                {
                                    "internalType": "uint256",
                                    "name": "executionFee",
                                    "type": "uint256"
                                },
                                {
                                    "internalType": "uint256",
                                    "name": "callbackGasLimit",
                                    "type": "uint256"
                                }
                            ],
                            "internalType": "struct SingleMarketDeposit.Numbers",
                            "name": "numbers",
                            "type": "tuple"
                        },
                        {
                            "components": [
                                {
                                    "internalType": "bool",
                                    "name": "shouldUnwrapNativeToken",
                                    "type": "bool"
                                }
                            ],
                            "internalType": "struct SingleMarketDeposit.Flags",
                            "name": "flags",
                            "type": "tuple"
                        }
                    ],
                    "internalType": "struct SingleMarketDeposit.Props",
                    "name": "",
                    "type": "tuple"
                }
            ],
            "stateMutability": "view",
            "type": "function"
        },
        {
            "inputs": [
                {
                    "internalType": "contract DataStore",
                    "name": "dataStore",
                    "type": "address"
                },
                {
                    "components": [
                        {
                            "internalType": "address",
                            "name": "marketToken",
                            "type": "address"
                        },
                        {
                            "internalType": "address",
                            "name": "indexToken",
                            "type": "address"
                        },
                        {
                            "internalType": "address",
                            "name": "longToken",
                            "type": "address"
                        },
                        {
                            "internalType": "address",
                            "name": "shortToken",
                            "type": "address"
                        }
                    ],
                    "internalType": "struct SingleMarket.Props",
                    "name": "market",
                    "type": "tuple"
                },
                {
                    "components": [
                        {
                            "components": [
                                {
                                    "internalType": "uint256",
                                    "name": "min",
                                    "type": "uint256"
                                },
                                {
                                    "internalType": "uint256",
                                    "name": "max",
                                    "type": "uint256"
                                }
                            ],
                            "internalType": "struct Price.Props",
                            "name": "indexTokenPrice",
                            "type": "tuple"
                        },
                        {
                            "components": [
                                {
                                    "internalType": "uint256",
                                    "name": "min",
                                    "type": "uint256"
                                },
                                {
                                    "internalType": "uint256",
                                    "name": "max",
                                    "type": "uint256"
                                }
                            ],
                            "internalType": "struct Price.Props",
                            "name": "longTokenPrice",
                            "type": "tuple"
                        },
                        {
                            "components": [
                                {
                                    "internalType": "uint256",
                                    "name": "min",
                                    "type": "uint256"
                                },
                                {
                                    "internalType": "uint256",
                                    "name": "max",
                                    "type": "uint256"
                                }
                            ],
                            "internalType": "struct Price.Props",
                            "name": "shortTokenPrice",
                            "type": "tuple"
                        }
                    ],
                    "internalType": "struct SingleMarketUtils.SingleMarketPrices",
                    "name": "prices",
                    "type": "tuple"
                },
                {
                    "internalType": "uint256",
                    "name": "longTokenAmount",
                    "type": "uint256"
                },
                {
                    "internalType": "uint256",
                    "name": "shortTokenAmount",
                    "type": "uint256"
                },
                {
                    "internalType": "address",
                    "name": "uiFeeReceiver",
                    "type": "address"
                }
            ],
            "name": "getSingleMarketDepositAmountOut",
            "outputs": [
                {
                    "internalType": "uint256",
                    "name": "",
                    "type": "uint256"
                }
            ],
            "stateMutability": "view",
            "type": "function"
        },
        {
            "inputs": [
                {
                    "internalType": "contract DataStore",
                    "name": "dataStore",
                    "type": "address"
                },
                {
                    "components": [
                        {
                            "components": [
                                {
                                    "internalType": "uint256",
                                    "name": "min",
                                    "type": "uint256"
                                },
                                {
                                    "internalType": "uint256",
                                    "name": "max",
                                    "type": "uint256"
                                }
                            ],
                            "internalType": "struct Price.Props",
                            "name": "indexTokenPrice",
                            "type": "tuple"
                        },
                        {
                            "components": [
                                {
                                    "internalType": "uint256",
                                    "name": "min",
                                    "type": "uint256"
                                },
                                {
                                    "internalType": "uint256",
                                    "name": "max",
                                    "type": "uint256"
                                }
                            ],
                            "internalType": "struct Price.Props",
                            "name": "longTokenPrice",
                            "type": "tuple"
                        },
                        {
                            "components": [
                                {
                                    "internalType": "uint256",
                                    "name": "min",
                                    "type": "uint256"
                                },
                                {
                                    "internalType": "uint256",
                                    "name": "max",
                                    "type": "uint256"
                                }
                            ],
                            "internalType": "struct Price.Props",
                            "name": "shortTokenPrice",
                            "type": "tuple"
                        }
                    ],
                    "internalType": "struct SingleMarketUtils.SingleMarketPrices",
                    "name": "prices",
                    "type": "tuple"
                },
                {
                    "internalType": "address",
                    "name": "marketKey",
                    "type": "address"
                }
            ],
            "name": "getSingleMarketInfo",
            "outputs": [
                {
                    "components": [
                        {
                            "components": [
                                {
                                    "internalType": "address",
                                    "name": "marketToken",
                                    "type": "address"
                                },
                                {
                                    "internalType": "address",
                                    "name": "indexToken",
                                    "type": "address"
                                },
                                {
                                    "internalType": "address",
                                    "name": "longToken",
                                    "type": "address"
                                },
                                {
                                    "internalType": "address",
                                    "name": "shortToken",
                                    "type": "address"
                                }
                            ],
                            "internalType": "struct SingleMarket.Props",
                            "name": "market",
                            "type": "tuple"
                        },
                        {
                            "internalType": "uint256",
                            "name": "borrowingFactorPerSecondForLongs",
                            "type": "uint256"
                        },
                        {
                            "internalType": "uint256",
                            "name": "borrowingFactorPerSecondForShorts",
                            "type": "uint256"
                        },
                        {
                            "components": [
                                {
                                    "components": [
                                        {
                                            "components": [
                                                {
                                                    "internalType": "uint256",
                                                    "name": "longToken",
                                                    "type": "uint256"
                                                },
                                                {
                                                    "internalType": "uint256",
                                                    "name": "shortToken",
                                                    "type": "uint256"
                                                }
                                            ],
                                            "internalType": "struct SingleMarketUtils.CollateralType",
                                            "name": "long",
                                            "type": "tuple"
                                        },
                                        {
                                            "components": [
                                                {
                                                    "internalType": "uint256",
                                                    "name": "longToken",
                                                    "type": "uint256"
                                                },
                                                {
                                                    "internalType": "uint256",
                                                    "name": "shortToken",
                                                    "type": "uint256"
                                                }
                                            ],
                                            "internalType": "struct SingleMarketUtils.CollateralType",
                                            "name": "short",
                                            "type": "tuple"
                                        }
                                    ],
                                    "internalType": "struct SingleMarketUtils.PositionType",
                                    "name": "fundingFeeAmountPerSize",
                                    "type": "tuple"
                                },
                                {
                                    "components": [
                                        {
                                            "components": [
                                                {
                                                    "internalType": "uint256",
                                                    "name": "longToken",
                                                    "type": "uint256"
                                                },
                                                {
                                                    "internalType": "uint256",
                                                    "name": "shortToken",
                                                    "type": "uint256"
                                                }
                                            ],
                                            "internalType": "struct SingleMarketUtils.CollateralType",
                                            "name": "long",
                                            "type": "tuple"
                                        },
                                        {
                                            "components": [
                                                {
                                                    "internalType": "uint256",
                                                    "name": "longToken",
                                                    "type": "uint256"
                                                },
                                                {
                                                    "internalType": "uint256",
                                                    "name": "shortToken",
                                                    "type": "uint256"
                                                }
                                            ],
                                            "internalType": "struct SingleMarketUtils.CollateralType",
                                            "name": "short",
                                            "type": "tuple"
                                        }
                                    ],
                                    "internalType": "struct SingleMarketUtils.PositionType",
                                    "name": "claimableFundingAmountPerSize",
                                    "type": "tuple"
                                }
                            ],
                            "internalType": "struct SingleMarketGlobalReaderUtils.SingleMarketBaseFundingValues",
                            "name": "baseFunding",
                            "type": "tuple"
                        },
                        {
                            "components": [
                                {
                                    "internalType": "bool",
                                    "name": "longsPayShorts",
                                    "type": "bool"
                                },
                                {
                                    "internalType": "uint256",
                                    "name": "fundingFactorPerSecond",
                                    "type": "uint256"
                                },
                                {
                                    "internalType": "int256",
                                    "name": "nextSavedFundingFactorPerSecond",
                                    "type": "int256"
                                },
                                {
                                    "components": [
                                        {
                                            "components": [
                                                {
                                                    "internalType": "uint256",
                                                    "name": "longToken",
                                                    "type": "uint256"
                                                },
                                                {
                                                    "internalType": "uint256",
                                                    "name": "shortToken",
                                                    "type": "uint256"
                                                }
                                            ],
                                            "internalType": "struct SingleMarketUtils.CollateralType",
                                            "name": "long",
                                            "type": "tuple"
                                        },
                                        {
                                            "components": [
                                                {
                                                    "internalType": "uint256",
                                                    "name": "longToken",
                                                    "type": "uint256"
                                                },
                                                {
                                                    "internalType": "uint256",
                                                    "name": "shortToken",
                                                    "type": "uint256"
                                                }
                                            ],
                                            "internalType": "struct SingleMarketUtils.CollateralType",
                                            "name": "short",
                                            "type": "tuple"
                                        }
                                    ],
                                    "internalType": "struct SingleMarketUtils.PositionType",
                                    "name": "fundingFeeAmountPerSizeDelta",
                                    "type": "tuple"
                                },
                                {
                                    "components": [
                                        {
                                            "components": [
                                                {
                                                    "internalType": "uint256",
                                                    "name": "longToken",
                                                    "type": "uint256"
                                                },
                                                {
                                                    "internalType": "uint256",
                                                    "name": "shortToken",
                                                    "type": "uint256"
                                                }
                                            ],
                                            "internalType": "struct SingleMarketUtils.CollateralType",
                                            "name": "long",
                                            "type": "tuple"
                                        },
                                        {
                                            "components": [
                                                {
                                                    "internalType": "uint256",
                                                    "name": "longToken",
                                                    "type": "uint256"
                                                },
                                                {
                                                    "internalType": "uint256",
                                                    "name": "shortToken",
                                                    "type": "uint256"
                                                }
                                            ],
                                            "internalType": "struct SingleMarketUtils.CollateralType",
                                            "name": "short",
                                            "type": "tuple"
                                        }
                                    ],
                                    "internalType": "struct SingleMarketUtils.PositionType",
                                    "name": "claimableFundingAmountPerSizeDelta",
                                    "type": "tuple"
                                }
                            ],
                            "internalType": "struct SingleMarketUtils.GetNextFundingAmountPerSizeResult",
                            "name": "nextFunding",
                            "type": "tuple"
                        },
                        {
                            "components": [
                                {
                                    "internalType": "uint256",
                                    "name": "virtualPoolAmountForLongToken",
                                    "type": "uint256"
                                },
                                {
                                    "internalType": "uint256",
                                    "name": "virtualPoolAmountForShortToken",
                                    "type": "uint256"
                                },
                                {
                                    "internalType": "int256",
                                    "name": "virtualInventoryForPositions",
                                    "type": "int256"
                                }
                            ],
                            "internalType": "struct SingleMarketGlobalReaderUtils.VirtualInventory",
                            "name": "virtualInventory",
                            "type": "tuple"
                        },
                        {
                            "internalType": "bool",
                            "name": "isDisabled",
                            "type": "bool"
                        }
                    ],
                    "internalType": "struct SingleMarketGlobalReaderUtils.SingleMarketInfo",
                    "name": "",
                    "type": "tuple"
                }
            ],
            "stateMutability": "view",
            "type": "function"
        },
        {
            "inputs": [
                {
                    "internalType": "contract DataStore",
                    "name": "dataStore",
                    "type": "address"
                },
                {
                    "components": [
                        {
                            "components": [
                                {
                                    "internalType": "uint256",
                                    "name": "min",
                                    "type": "uint256"
                                },
                                {
                                    "internalType": "uint256",
                                    "name": "max",
                                    "type": "uint256"
                                }
                            ],
                            "internalType": "struct Price.Props",
                            "name": "indexTokenPrice",
                            "type": "tuple"
                        },
                        {
                            "components": [
                                {
                                    "internalType": "uint256",
                                    "name": "min",
                                    "type": "uint256"
                                },
                                {
                                    "internalType": "uint256",
                                    "name": "max",
                                    "type": "uint256"
                                }
                            ],
                            "internalType": "struct Price.Props",
                            "name": "longTokenPrice",
                            "type": "tuple"
                        },
                        {
                            "components": [
                                {
                                    "internalType": "uint256",
                                    "name": "min",
                                    "type": "uint256"
                                },
                                {
                                    "internalType": "uint256",
                                    "name": "max",
                                    "type": "uint256"
                                }
                            ],
                            "internalType": "struct Price.Props",
                            "name": "shortTokenPrice",
                            "type": "tuple"
                        }
                    ],
                    "internalType": "struct SingleMarketUtils.SingleMarketPrices[]",
                    "name": "marketPricesList",
                    "type": "tuple[]"
                },
                {
                    "internalType": "uint256",
                    "name": "start",
                    "type": "uint256"
                },
                {
                    "internalType": "uint256",
                    "name": "end",
                    "type": "uint256"
                }
            ],
            "name": "getSingleMarketInfoList",
            "outputs": [
                {
                    "components": [
                        {
                            "components": [
                                {
                                    "internalType": "address",
                                    "name": "marketToken",
                                    "type": "address"
                                },
                                {
                                    "internalType": "address",
                                    "name": "indexToken",
                                    "type": "address"
                                },
                                {
                                    "internalType": "address",
                                    "name": "longToken",
                                    "type": "address"
                                },
                                {
                                    "internalType": "address",
                                    "name": "shortToken",
                                    "type": "address"
                                }
                            ],
                            "internalType": "struct SingleMarket.Props",
                            "name": "market",
                            "type": "tuple"
                        },
                        {
                            "internalType": "uint256",
                            "name": "borrowingFactorPerSecondForLongs",
                            "type": "uint256"
                        },
                        {
                            "internalType": "uint256",
                            "name": "borrowingFactorPerSecondForShorts",
                            "type": "uint256"
                        },
                        {
                            "components": [
                                {
                                    "components": [
                                        {
                                            "components": [
                                                {
                                                    "internalType": "uint256",
                                                    "name": "longToken",
                                                    "type": "uint256"
                                                },
                                                {
                                                    "internalType": "uint256",
                                                    "name": "shortToken",
                                                    "type": "uint256"
                                                }
                                            ],
                                            "internalType": "struct SingleMarketUtils.CollateralType",
                                            "name": "long",
                                            "type": "tuple"
                                        },
                                        {
                                            "components": [
                                                {
                                                    "internalType": "uint256",
                                                    "name": "longToken",
                                                    "type": "uint256"
                                                },
                                                {
                                                    "internalType": "uint256",
                                                    "name": "shortToken",
                                                    "type": "uint256"
                                                }
                                            ],
                                            "internalType": "struct SingleMarketUtils.CollateralType",
                                            "name": "short",
                                            "type": "tuple"
                                        }
                                    ],
                                    "internalType": "struct SingleMarketUtils.PositionType",
                                    "name": "fundingFeeAmountPerSize",
                                    "type": "tuple"
                                },
                                {
                                    "components": [
                                        {
                                            "components": [
                                                {
                                                    "internalType": "uint256",
                                                    "name": "longToken",
                                                    "type": "uint256"
                                                },
                                                {
                                                    "internalType": "uint256",
                                                    "name": "shortToken",
                                                    "type": "uint256"
                                                }
                                            ],
                                            "internalType": "struct SingleMarketUtils.CollateralType",
                                            "name": "long",
                                            "type": "tuple"
                                        },
                                        {
                                            "components": [
                                                {
                                                    "internalType": "uint256",
                                                    "name": "longToken",
                                                    "type": "uint256"
                                                },
                                                {
                                                    "internalType": "uint256",
                                                    "name": "shortToken",
                                                    "type": "uint256"
                                                }
                                            ],
                                            "internalType": "struct SingleMarketUtils.CollateralType",
                                            "name": "short",
                                            "type": "tuple"
                                        }
                                    ],
                                    "internalType": "struct SingleMarketUtils.PositionType",
                                    "name": "claimableFundingAmountPerSize",
                                    "type": "tuple"
                                }
                            ],
                            "internalType": "struct SingleMarketGlobalReaderUtils.SingleMarketBaseFundingValues",
                            "name": "baseFunding",
                            "type": "tuple"
                        },
                        {
                            "components": [
                                {
                                    "internalType": "bool",
                                    "name": "longsPayShorts",
                                    "type": "bool"
                                },
                                {
                                    "internalType": "uint256",
                                    "name": "fundingFactorPerSecond",
                                    "type": "uint256"
                                },
                                {
                                    "internalType": "int256",
                                    "name": "nextSavedFundingFactorPerSecond",
                                    "type": "int256"
                                },
                                {
                                    "components": [
                                        {
                                            "components": [
                                                {
                                                    "internalType": "uint256",
                                                    "name": "longToken",
                                                    "type": "uint256"
                                                },
                                                {
                                                    "internalType": "uint256",
                                                    "name": "shortToken",
                                                    "type": "uint256"
                                                }
                                            ],
                                            "internalType": "struct SingleMarketUtils.CollateralType",
                                            "name": "long",
                                            "type": "tuple"
                                        },
                                        {
                                            "components": [
                                                {
                                                    "internalType": "uint256",
                                                    "name": "longToken",
                                                    "type": "uint256"
                                                },
                                                {
                                                    "internalType": "uint256",
                                                    "name": "shortToken",
                                                    "type": "uint256"
                                                }
                                            ],
                                            "internalType": "struct SingleMarketUtils.CollateralType",
                                            "name": "short",
                                            "type": "tuple"
                                        }
                                    ],
                                    "internalType": "struct SingleMarketUtils.PositionType",
                                    "name": "fundingFeeAmountPerSizeDelta",
                                    "type": "tuple"
                                },
                                {
                                    "components": [
                                        {
                                            "components": [
                                                {
                                                    "internalType": "uint256",
                                                    "name": "longToken",
                                                    "type": "uint256"
                                                },
                                                {
                                                    "internalType": "uint256",
                                                    "name": "shortToken",
                                                    "type": "uint256"
                                                }
                                            ],
                                            "internalType": "struct SingleMarketUtils.CollateralType",
                                            "name": "long",
                                            "type": "tuple"
                                        },
                                        {
                                            "components": [
                                                {
                                                    "internalType": "uint256",
                                                    "name": "longToken",
                                                    "type": "uint256"
                                                },
                                                {
                                                    "internalType": "uint256",
                                                    "name": "shortToken",
                                                    "type": "uint256"
                                                }
                                            ],
                                            "internalType": "struct SingleMarketUtils.CollateralType",
                                            "name": "short",
                                            "type": "tuple"
                                        }
                                    ],
                                    "internalType": "struct SingleMarketUtils.PositionType",
                                    "name": "claimableFundingAmountPerSizeDelta",
                                    "type": "tuple"
                                }
                            ],
                            "internalType": "struct SingleMarketUtils.GetNextFundingAmountPerSizeResult",
                            "name": "nextFunding",
                            "type": "tuple"
                        },
                        {
                            "components": [
                                {
                                    "internalType": "uint256",
                                    "name": "virtualPoolAmountForLongToken",
                                    "type": "uint256"
                                },
                                {
                                    "internalType": "uint256",
                                    "name": "virtualPoolAmountForShortToken",
                                    "type": "uint256"
                                },
                                {
                                    "internalType": "int256",
                                    "name": "virtualInventoryForPositions",
                                    "type": "int256"
                                }
                            ],
                            "internalType": "struct SingleMarketGlobalReaderUtils.VirtualInventory",
                            "name": "virtualInventory",
                            "type": "tuple"
                        },
                        {
                            "internalType": "bool",
                            "name": "isDisabled",
                            "type": "bool"
                        }
                    ],
                    "internalType": "struct SingleMarketGlobalReaderUtils.SingleMarketInfo[]",
                    "name": "",
                    "type": "tuple[]"
                }
            ],
            "stateMutability": "view",
            "type": "function"
        },
        {
            "inputs": [
                {
                    "internalType": "contract DataStore",
                    "name": "dataStore",
                    "type": "address"
                },
                {
                    "components": [
                        {
                            "internalType": "address",
                            "name": "marketToken",
                            "type": "address"
                        },
                        {
                            "internalType": "address",
                            "name": "indexToken",
                            "type": "address"
                        },
                        {
                            "internalType": "address",
                            "name": "longToken",
                            "type": "address"
                        },
                        {
                            "internalType": "address",
                            "name": "shortToken",
                            "type": "address"
                        }
                    ],
                    "internalType": "struct SingleMarket.Props",
                    "name": "market",
                    "type": "tuple"
                },
                {
                    "components": [
                        {
                            "internalType": "uint256",
                            "name": "min",
                            "type": "uint256"
                        },
                        {
                            "internalType": "uint256",
                            "name": "max",
                            "type": "uint256"
                        }
                    ],
                    "internalType": "struct Price.Props",
                    "name": "indexTokenPrice",
                    "type": "tuple"
                },
                {
                    "internalType": "bool",
                    "name": "maximize",
                    "type": "bool"
                }
            ],
            "name": "getSingleMarketNetPnl",
            "outputs": [
                {
                    "internalType": "int256",
                    "name": "",
                    "type": "int256"
                }
            ],
            "stateMutability": "view",
            "type": "function"
        },
        {
            "inputs": [
                {
                    "internalType": "contract DataStore",
                    "name": "dataStore",
                    "type": "address"
                },
                {
                    "components": [
                        {
                            "internalType": "address",
                            "name": "marketToken",
                            "type": "address"
                        },
                        {
                            "internalType": "address",
                            "name": "indexToken",
                            "type": "address"
                        },
                        {
                            "internalType": "address",
                            "name": "longToken",
                            "type": "address"
                        },
                        {
                            "internalType": "address",
                            "name": "shortToken",
                            "type": "address"
                        }
                    ],
                    "internalType": "struct SingleMarket.Props",
                    "name": "market",
                    "type": "tuple"
                },
                {
                    "components": [
                        {
                            "internalType": "uint256",
                            "name": "min",
                            "type": "uint256"
                        },
                        {
                            "internalType": "uint256",
                            "name": "max",
                            "type": "uint256"
                        }
                    ],
                    "internalType": "struct Price.Props",
                    "name": "indexTokenPrice",
                    "type": "tuple"
                },
                {
                    "internalType": "bool",
                    "name": "isLong",
                    "type": "bool"
                },
                {
                    "internalType": "bool",
                    "name": "maximize",
                    "type": "bool"
                }
            ],
            "name": "getSingleMarketOpenInterestWithPnl",
            "outputs": [
                {
                    "internalType": "int256",
                    "name": "",
                    "type": "int256"
                }
            ],
            "stateMutability": "view",
            "type": "function"
        },
        {
            "inputs": [
                {
                    "internalType": "contract DataStore",
                    "name": "dataStore",
                    "type": "address"
                },
                {
                    "internalType": "bytes32",
                    "name": "key",
                    "type": "bytes32"
                }
            ],
            "name": "getSingleMarketOrder",
            "outputs": [
                {
                    "components": [
                        {
                            "components": [
                                {
                                    "internalType": "address",
                                    "name": "account",
                                    "type": "address"
                                },
                                {
                                    "internalType": "address",
                                    "name": "receiver",
                                    "type": "address"
                                },
                                {
                                    "internalType": "address",
                                    "name": "callbackContract",
                                    "type": "address"
                                },
                                {
                                    "internalType": "address",
                                    "name": "uiFeeReceiver",
                                    "type": "address"
                                },
                                {
                                    "internalType": "address",
                                    "name": "market",
                                    "type": "address"
                                },
                                {
                                    "internalType": "address",
                                    "name": "initialCollateralToken",
                                    "type": "address"
                                },
                                {
                                    "internalType": "address[]",
                                    "name": "swapPath",
                                    "type": "address[]"
                                }
                            ],
                            "internalType": "struct SingleMarketOrder.Addresses",
                            "name": "addresses",
                            "type": "tuple"
                        },
                        {
                            "components": [
                                {
                                    "internalType": "enum SingleMarketOrder.OrderType",
                                    "name": "orderType",
                                    "type": "uint8"
                                },
                                {
                                    "internalType": "enum SingleMarketOrder.DecreasePositionSwapType",
                                    "name": "decreasePositionSwapType",
                                    "type": "uint8"
                                },
                                {
                                    "internalType": "uint256",
                                    "name": "sizeDeltaUsd",
                                    "type": "uint256"
                                },
                                {
                                    "internalType": "uint256",
                                    "name": "initialCollateralDeltaAmount",
                                    "type": "uint256"
                                },
                                {
                                    "internalType": "uint256",
                                    "name": "triggerPrice",
                                    "type": "uint256"
                                },
                                {
                                    "internalType": "uint256",
                                    "name": "acceptablePrice",
                                    "type": "uint256"
                                },
                                {
                                    "internalType": "uint256",
                                    "name": "executionFee",
                                    "type": "uint256"
                                },
                                {
                                    "internalType": "uint256",
                                    "name": "callbackGasLimit",
                                    "type": "uint256"
                                },
                                {
                                    "internalType": "uint256",
                                    "name": "minOutputAmount",
                                    "type": "uint256"
                                },
                                {
                                    "internalType": "uint256",
                                    "name": "updatedAtBlock",
                                    "type": "uint256"
                                }
                            ],
                            "internalType": "struct SingleMarketOrder.Numbers",
                            "name": "numbers",
                            "type": "tuple"
                        },
                        {
                            "components": [
                                {
                                    "internalType": "bool",
                                    "name": "isLong",
                                    "type": "bool"
                                },
                                {
                                    "internalType": "bool",
                                    "name": "shouldUnwrapNativeToken",
                                    "type": "bool"
                                },
                                {
                                    "internalType": "bool",
                                    "name": "isFrozen",
                                    "type": "bool"
                                }
                            ],
                            "internalType": "struct SingleMarketOrder.Flags",
                            "name": "flags",
                            "type": "tuple"
                        }
                    ],
                    "internalType": "struct SingleMarketOrder.Props",
                    "name": "",
                    "type": "tuple"
                }
            ],
            "stateMutability": "view",
            "type": "function"
        },
        {
            "inputs": [
                {
                    "internalType": "contract DataStore",
                    "name": "dataStore",
                    "type": "address"
                },
                {
                    "components": [
                        {
                            "internalType": "address",
                            "name": "marketToken",
                            "type": "address"
                        },
                        {
                            "internalType": "address",
                            "name": "indexToken",
                            "type": "address"
                        },
                        {
                            "internalType": "address",
                            "name": "longToken",
                            "type": "address"
                        },
                        {
                            "internalType": "address",
                            "name": "shortToken",
                            "type": "address"
                        }
                    ],
                    "internalType": "struct SingleMarket.Props",
                    "name": "market",
                    "type": "tuple"
                },
                {
                    "components": [
                        {
                            "internalType": "uint256",
                            "name": "min",
                            "type": "uint256"
                        },
                        {
                            "internalType": "uint256",
                            "name": "max",
                            "type": "uint256"
                        }
                    ],
                    "internalType": "struct Price.Props",
                    "name": "indexTokenPrice",
                    "type": "tuple"
                },
                {
                    "internalType": "bool",
                    "name": "isLong",
                    "type": "bool"
                },
                {
                    "internalType": "bool",
                    "name": "maximize",
                    "type": "bool"
                }
            ],
            "name": "getSingleMarketPnl",
            "outputs": [
                {
                    "internalType": "int256",
                    "name": "",
                    "type": "int256"
                }
            ],
            "stateMutability": "view",
            "type": "function"
        },
        {
            "inputs": [
                {
                    "internalType": "contract DataStore",
                    "name": "dataStore",
                    "type": "address"
                },
                {
                    "internalType": "address",
                    "name": "marketAddress",
                    "type": "address"
                },
                {
                    "components": [
                        {
                            "components": [
                                {
                                    "internalType": "uint256",
                                    "name": "min",
                                    "type": "uint256"
                                },
                                {
                                    "internalType": "uint256",
                                    "name": "max",
                                    "type": "uint256"
                                }
                            ],
                            "internalType": "struct Price.Props",
                            "name": "indexTokenPrice",
                            "type": "tuple"
                        },
                        {
                            "components": [
                                {
                                    "internalType": "uint256",
                                    "name": "min",
                                    "type": "uint256"
                                },
                                {
                                    "internalType": "uint256",
                                    "name": "max",
                                    "type": "uint256"
                                }
                            ],
                            "internalType": "struct Price.Props",
                            "name": "longTokenPrice",
                            "type": "tuple"
                        },
                        {
                            "components": [
                                {
                                    "internalType": "uint256",
                                    "name": "min",
                                    "type": "uint256"
                                },
                                {
                                    "internalType": "uint256",
                                    "name": "max",
                                    "type": "uint256"
                                }
                            ],
                            "internalType": "struct Price.Props",
                            "name": "shortTokenPrice",
                            "type": "tuple"
                        }
                    ],
                    "internalType": "struct SingleMarketUtils.SingleMarketPrices",
                    "name": "prices",
                    "type": "tuple"
                },
                {
                    "internalType": "bool",
                    "name": "isLong",
                    "type": "bool"
                },
                {
                    "internalType": "bool",
                    "name": "maximize",
                    "type": "bool"
                }
            ],
            "name": "getSingleMarketPnlToPoolFactor",
            "outputs": [
                {
                    "internalType": "int256",
                    "name": "",
                    "type": "int256"
                }
            ],
            "stateMutability": "view",
            "type": "function"
        },
        {
            "inputs": [
                {
                    "internalType": "contract DataStore",
                    "name": "dataStore",
                    "type": "address"
                },
                {
                    "internalType": "bytes32",
                    "name": "key",
                    "type": "bytes32"
                }
            ],
            "name": "getSingleMarketPosition",
            "outputs": [
                {
                    "components": [
                        {
                            "components": [
                                {
                                    "internalType": "address",
                                    "name": "account",
                                    "type": "address"
                                },
                                {
                                    "internalType": "address",
                                    "name": "market",
                                    "type": "address"
                                },
                                {
                                    "internalType": "address",
                                    "name": "collateralToken",
                                    "type": "address"
                                }
                            ],
                            "internalType": "struct SingleMarketPosition.Addresses",
                            "name": "addresses",
                            "type": "tuple"
                        },
                        {
                            "components": [
                                {
                                    "internalType": "uint256",
                                    "name": "sizeInUsd",
                                    "type": "uint256"
                                },
                                {
                                    "internalType": "uint256",
                                    "name": "sizeInTokens",
                                    "type": "uint256"
                                },
                                {
                                    "internalType": "uint256",
                                    "name": "collateralAmount",
                                    "type": "uint256"
                                },
                                {
                                    "internalType": "uint256",
                                    "name": "borrowingFactor",
                                    "type": "uint256"
                                },
                                {
                                    "internalType": "uint256",
                                    "name": "fundingFeeAmountPerSize",
                                    "type": "uint256"
                                },
                                {
                                    "internalType": "uint256",
                                    "name": "longTokenClaimableFundingAmountPerSize",
                                    "type": "uint256"
                                },
                                {
                                    "internalType": "uint256",
                                    "name": "shortTokenClaimableFundingAmountPerSize",
                                    "type": "uint256"
                                },
                                {
                                    "internalType": "uint256",
                                    "name": "increasedAtBlock",
                                    "type": "uint256"
                                },
                                {
                                    "internalType": "uint256",
                                    "name": "decreasedAtBlock",
                                    "type": "uint256"
                                }
                            ],
                            "internalType": "struct SingleMarketPosition.Numbers",
                            "name": "numbers",
                            "type": "tuple"
                        },
                        {
                            "components": [
                                {
                                    "internalType": "bool",
                                    "name": "isLong",
                                    "type": "bool"
                                }
                            ],
                            "internalType": "struct SingleMarketPosition.Flags",
                            "name": "flags",
                            "type": "tuple"
                        }
                    ],
                    "internalType": "struct SingleMarketPosition.Props",
                    "name": "",
                    "type": "tuple"
                }
            ],
            "stateMutability": "view",
            "type": "function"
        },
        {
            "inputs": [
                {
                    "internalType": "contract DataStore",
                    "name": "dataStore",
                    "type": "address"
                },
                {
                    "components": [
                        {
                            "internalType": "address",
                            "name": "marketToken",
                            "type": "address"
                        },
                        {
                            "internalType": "address",
                            "name": "indexToken",
                            "type": "address"
                        },
                        {
                            "internalType": "address",
                            "name": "longToken",
                            "type": "address"
                        },
                        {
                            "internalType": "address",
                            "name": "shortToken",
                            "type": "address"
                        }
                    ],
                    "internalType": "struct SingleMarket.Props",
                    "name": "market",
                    "type": "tuple"
                },
                {
                    "components": [
                        {
                            "internalType": "uint256",
                            "name": "min",
                            "type": "uint256"
                        },
                        {
                            "internalType": "uint256",
                            "name": "max",
                            "type": "uint256"
                        }
                    ],
                    "internalType": "struct Price.Props",
                    "name": "indexTokenPrice",
                    "type": "tuple"
                },
                {
                    "components": [
                        {
                            "internalType": "uint256",
                            "name": "min",
                            "type": "uint256"
                        },
                        {
                            "internalType": "uint256",
                            "name": "max",
                            "type": "uint256"
                        }
                    ],
                    "internalType": "struct Price.Props",
                    "name": "longTokenPrice",
                    "type": "tuple"
                },
                {
                    "components": [
                        {
                            "internalType": "uint256",
                            "name": "min",
                            "type": "uint256"
                        },
                        {
                            "internalType": "uint256",
                            "name": "max",
                            "type": "uint256"
                        }
                    ],
                    "internalType": "struct Price.Props",
                    "name": "shortTokenPrice",
                    "type": "tuple"
                },
                {
                    "internalType": "bytes32",
                    "name": "pnlFactorType",
                    "type": "bytes32"
                },
                {
                    "internalType": "bool",
                    "name": "maximize",
                    "type": "bool"
                }
            ],
            "name": "getSingleMarketTokenPrice",
            "outputs": [
                {
                    "internalType": "int256",
                    "name": "",
                    "type": "int256"
                },
                {
                    "components": [
                        {
                            "internalType": "int256",
                            "name": "poolValue",
                            "type": "int256"
                        },
                        {
                            "internalType": "int256",
                            "name": "longPnl",
                            "type": "int256"
                        },
                        {
                            "internalType": "int256",
                            "name": "shortPnl",
                            "type": "int256"
                        },
                        {
                            "internalType": "int256",
                            "name": "netPnl",
                            "type": "int256"
                        },
                        {
                            "internalType": "uint256",
                            "name": "longTokenAmount",
                            "type": "uint256"
                        },
                        {
                            "internalType": "uint256",
                            "name": "shortTokenAmount",
                            "type": "uint256"
                        },
                        {
                            "internalType": "uint256",
                            "name": "longTokenUsd",
                            "type": "uint256"
                        },
                        {
                            "internalType": "uint256",
                            "name": "shortTokenUsd",
                            "type": "uint256"
                        },
                        {
                            "internalType": "uint256",
                            "name": "totalBorrowingFees",
                            "type": "uint256"
                        },
                        {
                            "internalType": "uint256",
                            "name": "borrowingFeePoolFactor",
                            "type": "uint256"
                        },
                        {
                            "internalType": "uint256",
                            "name": "impactPoolAmount",
                            "type": "uint256"
                        }
                    ],
                    "internalType": "struct SingleMarketPoolValueInfo.Props",
                    "name": "",
                    "type": "tuple"
                }
            ],
            "stateMutability": "view",
            "type": "function"
        },
        {
            "inputs": [
                {
                    "internalType": "contract DataStore",
                    "name": "dataStore",
                    "type": "address"
                },
                {
                    "internalType": "bytes32",
                    "name": "key",
                    "type": "bytes32"
                }
            ],
            "name": "getSingleMarketWithdrawal",
            "outputs": [
                {
                    "components": [
                        {
                            "components": [
                                {
                                    "internalType": "address",
                                    "name": "account",
                                    "type": "address"
                                },
                                {
                                    "internalType": "address",
                                    "name": "receiver",
                                    "type": "address"
                                },
                                {
                                    "internalType": "address",
                                    "name": "callbackContract",
                                    "type": "address"
                                },
                                {
                                    "internalType": "address",
                                    "name": "uiFeeReceiver",
                                    "type": "address"
                                },
                                {
                                    "internalType": "address",
                                    "name": "market",
                                    "type": "address"
                                },
                                {
                                    "internalType": "address[]",
                                    "name": "longTokenSwapPath",
                                    "type": "address[]"
                                },
                                {
                                    "internalType": "address[]",
                                    "name": "shortTokenSwapPath",
                                    "type": "address[]"
                                }
                            ],
                            "internalType": "struct SingleMarketWithdrawal.Addresses",
                            "name": "addresses",
                            "type": "tuple"
                        },
                        {
                            "components": [
                                {
                                    "internalType": "uint256",
                                    "name": "marketTokenAmount",
                                    "type": "uint256"
                                },
                                {
                                    "internalType": "uint256",
                                    "name": "minLongTokenAmount",
                                    "type": "uint256"
                                },
                                {
                                    "internalType": "uint256",
                                    "name": "minShortTokenAmount",
                                    "type": "uint256"
                                },
                                {
                                    "internalType": "uint256",
                                    "name": "updatedAtBlock",
                                    "type": "uint256"
                                },
                                {
                                    "internalType": "uint256",
                                    "name": "executionFee",
                                    "type": "uint256"
                                },
                                {
                                    "internalType": "uint256",
                                    "name": "callbackGasLimit",
                                    "type": "uint256"
                                }
                            ],
                            "internalType": "struct SingleMarketWithdrawal.Numbers",
                            "name": "numbers",
                            "type": "tuple"
                        },
                        {
                            "components": [
                                {
                                    "internalType": "bool",
                                    "name": "shouldUnwrapNativeToken",
                                    "type": "bool"
                                }
                            ],
                            "internalType": "struct SingleMarketWithdrawal.Flags",
                            "name": "flags",
                            "type": "tuple"
                        }
                    ],
                    "internalType": "struct SingleMarketWithdrawal.Props",
                    "name": "",
                    "type": "tuple"
                }
            ],
            "stateMutability": "view",
            "type": "function"
        },
        {
            "inputs": [
                {
                    "internalType": "contract DataStore",
                    "name": "dataStore",
                    "type": "address"
                },
                {
                    "components": [
                        {
                            "internalType": "address",
                            "name": "marketToken",
                            "type": "address"
                        },
                        {
                            "internalType": "address",
                            "name": "indexToken",
                            "type": "address"
                        },
                        {
                            "internalType": "address",
                            "name": "longToken",
                            "type": "address"
                        },
                        {
                            "internalType": "address",
                            "name": "shortToken",
                            "type": "address"
                        }
                    ],
                    "internalType": "struct SingleMarket.Props",
                    "name": "market",
                    "type": "tuple"
                },
                {
                    "components": [
                        {
                            "components": [
                                {
                                    "internalType": "uint256",
                                    "name": "min",
                                    "type": "uint256"
                                },
                                {
                                    "internalType": "uint256",
                                    "name": "max",
                                    "type": "uint256"
                                }
                            ],
                            "internalType": "struct Price.Props",
                            "name": "indexTokenPrice",
                            "type": "tuple"
                        },
                        {
                            "components": [
                                {
                                    "internalType": "uint256",
                                    "name": "min",
                                    "type": "uint256"
                                },
                                {
                                    "internalType": "uint256",
                                    "name": "max",
                                    "type": "uint256"
                                }
                            ],
                            "internalType": "struct Price.Props",
                            "name": "longTokenPrice",
                            "type": "tuple"
                        },
                        {
                            "components": [
                                {
                                    "internalType": "uint256",
                                    "name": "min",
                                    "type": "uint256"
                                },
                                {
                                    "internalType": "uint256",
                                    "name": "max",
                                    "type": "uint256"
                                }
                            ],
                            "internalType": "struct Price.Props",
                            "name": "shortTokenPrice",
                            "type": "tuple"
                        }
                    ],
                    "internalType": "struct SingleMarketUtils.SingleMarketPrices",
                    "name": "prices",
                    "type": "tuple"
                },
                {
                    "internalType": "uint256",
                    "name": "marketTokenAmount",
                    "type": "uint256"
                },
                {
                    "internalType": "address",
                    "name": "uiFeeReceiver",
                    "type": "address"
                }
            ],
            "name": "getSingleMarketWithdrawalAmountOut",
            "outputs": [
                {
                    "internalType": "uint256",
                    "name": "",
                    "type": "uint256"
                },
                {
                    "internalType": "uint256",
                    "name": "",
                    "type": "uint256"
                }
            ],
            "stateMutability": "view",
            "type": "function"
        },
        {
            "inputs": [
                {
                    "internalType": "contract DataStore",
                    "name": "dataStore",
                    "type": "address"
                },
                {
                    "internalType": "uint256",
                    "name": "start",
                    "type": "uint256"
                },
                {
                    "internalType": "uint256",
                    "name": "end",
                    "type": "uint256"
                }
            ],
            "name": "getSingleMarkets",
            "outputs": [
                {
                    "components": [
                        {
                            "internalType": "address",
                            "name": "marketToken",
                            "type": "address"
                        },
                        {
                            "internalType": "address",
                            "name": "indexToken",
                            "type": "address"
                        },
                        {
                            "internalType": "address",
                            "name": "longToken",
                            "type": "address"
                        },
                        {
                            "internalType": "address",
                            "name": "shortToken",
                            "type": "address"
                        }
                    ],
                    "internalType": "struct SingleMarket.Props[]",
                    "name": "",
                    "type": "tuple[]"
                }
            ],
            "stateMutability": "view",
            "type": "function"
        }
    ],
    "bytecode": "0x608060405234801561001057600080fd5b50614188806100206000396000f3fe608060405234801561001057600080fd5b50600436106101075760003560e01c8063032fe5e01461010c57806315dbae76146101355780631d7abfbd1461015557806320b282c314610168578063260cee52146101965780633c55548d146101b757806346a62735146101d75780634e04578e146101f75780635dbe9de1146102175780637494f270146102375780637643d4281461025757806392e044971461026a578063991aa14c1461028a578063a15d28cd146102b2578063a4d8b2ef146102c5578063bf3f928a146102e5578063c06415f4146102f8578063caa777921461030b578063cd6f3aaa1461032b578063d008aaa3146103d4578063d52f9942146103f4575b600080fd5b61011f61011a366004611b18565b610414565b60405161012c9190611b91565b60405180910390f35b610148610143366004611b9f565b61049f565b60405161012c9190611c49565b61011f610163366004611b9f565b610525565b61017b610176366004611f84565b610566565b6040805193845260208401929092529082015260600161012c565b6101a96101a4366004611fee565b6105fc565b60405190815260200161012c565b6101ca6101c5366004611b9f565b610613565b60405161012c9190612049565b6101ea6101e5366004611b9f565b610699565b60405161012c91906121ee565b61020a6102053660046121fd565b61071c565b60405161012c919061243e565b61022a6102253660046124e5565b6107b5565b60405161012c91906125d5565b61024a610245366004612624565b610845565b60405161012c91906127f1565b6101a9610265366004612853565b6108ca565b61027d6102783660046128c5565b61095a565b60405161012c91906128fa565b61029d61029836600461293c565b6109f5565b6040805192835260208301919091520161012c565b6101a96102c03660046129a5565b610a85565b6102d86102d3366004611b9f565b610a94565b60405161012c9190612a08565b6101a96102f3366004612a1b565b610b1a565b6101a96103063660046129a5565b610ba6565b61031e610319366004612a80565b610bb5565b60405161012c9190612b9d565b61033e610339366004612bac565b610c3a565b60405161012c92919060006101808201905083825282516020830152602083015160408301526040830151606083015260608301516080830152608083015160a083015260a083015160c083015260c083015160e083015260e083015161010081818501528085015191505061012081818501528085015191505061014081818501528085015161016085015250509392505050565b6103e76103e2366004612c29565b610d2e565b60405161012c9190612c88565b610407610402366004612624565b610db3565b60405161012c9190612ccb565b61041c6115f8565b60405163a8d8fff560e01b815273__$1da10f5a3184b2d153e0c9a458fda48976$__9063a8d8fff5906104559086908690600401612d0e565b608060405180830381865af4158015610472573d6000803e3d6000fd5b505050506040513d601f19601f820116820180604052508101906104969190612d90565b90505b92915050565b6104a761161f565b60405163fdfc26f360e01b815273__$865b4cf238eb8b11f3f312b7130271ee4f$__9063fdfc26f3906104e09086908690600401612dac565b600060405180830381865af41580156104fd573d6000803e3d6000fd5b505050506040513d6000823e601f3d908101601f191682016040526104969190810190612ee6565b61052d6115f8565b6040516329bc01e160e11b815273__$1da10f5a3184b2d153e0c9a458fda48976$__9063537803c2906104559086908690600401612dac565b600080600073__$067717cfa97f6ee4d5722fb1c063c14456$__63da6c50c389898989896040518663ffffffff1660e01b81526004016105aa95949392919061304c565b606060405180830381865af41580156105c7573d6000803e3d6000fd5b505050506040513d601f19601f820116820180604052508101906105eb919061308c565b925092509250955095509592505050565b600061060a85858585610e38565b95945050505050565b61061b6116be565b60405163fdfc26f360e01b815273__$52a9d4a0b775300ccc3d8cac515eaef829$__9063fdfc26f3906106549086908690600401612dac565b600060405180830381865af4158015610671573d6000803e3d6000fd5b505050506040513d6000823e601f3d908101601f1916820160405261049691908101906130ba565b6106a1611716565b60405163fdfc26f360e01b815273__$82864bcb9ed35d4a1869ff1c767e7233b6$__9063fdfc26f3906106da9086908690600401612dac565b6101a060405180830381865af41580156106f8573d6000803e3d6000fd5b505050506040513d601f19601f82011682018060405250810190610496919061330b565b61072461178f565b60405163559c239760e11b815273__$9089a81766ad36b5061f02dda2535fea35$__9063ab38472e90610767908b908b908b908b908b908b908b90600401613328565b61066060405180830381865af4158015610785573d6000803e3d6000fd5b505050506040513d601f19601f820116820180604052508101906107a99190613658565b98975050505050505050565b604051627e671960e51b815260609073__$067717cfa97f6ee4d5722fb1c063c14456$__90630fcce320906107f690899089908990899089906004016136af565b600060405180830381865af4158015610813573d6000803e3d6000fd5b505050506040513d6000823e601f3d908101601f1916820160405261083b919081019061372d565b9695505050505050565b604051630d75c16760e01b815260609073__$067717cfa97f6ee4d5722fb1c063c14456$__90630d75c167906108859088908890889088906004016137c7565b600060405180830381865af41580156108a2573d6000803e3d6000fd5b505050506040513d6000823e601f3d908101601f1916820160405261060a91908101906139e5565b6040516325dcf93760e01b815260009073__$9bb02ba4bd55abfb90695cbb93fa41f82c$__906325dcf9379061090e908a908a908a908a908a908a90600401613a95565b602060405180830381865af415801561092b573d6000803e3d6000fd5b505050506040513d601f19601f8201168201806040525081019061094f9190613ae5565b979650505050505050565b604051636e85fccf60e01b81526001600160a01b0384166004820152602481018390526044810182905260609073__$067717cfa97f6ee4d5722fb1c063c14456$__90636e85fccf90606401600060405180830381865af41580156109c3573d6000803e3d6000fd5b505050506040513d6000823e601f3d908101601f191682016040526109eb9190810190613afe565b90505b9392505050565b60008073__$44ae962c5c5b143df06377cf82d7f89999$__6312c6ca7588888888886040518663ffffffff1660e01b8152600401610a37959493929190613b8e565b6040805180830381865af4158015610a53573d6000803e3d6000fd5b505050506040513d601f19601f82011682018060405250810190610a779190613bd6565b915091509550959350505050565b600061083b8686868686610e67565b610a9c6117f3565b60405163fdfc26f360e01b815273__$165664337610c3baa8f0d198a6aa2ac912$__9063fdfc26f390610ad59086908690600401612dac565b600060405180830381865af4158015610af2573d6000803e3d6000fd5b505050506040513d6000823e601f3d908101601f191682016040526104969190810190613bfa565b60008073__$1da10f5a3184b2d153e0c9a458fda48976$__63a8d8fff588886040518363ffffffff1660e01b8152600401610b56929190612d0e565b608060405180830381865af4158015610b73573d6000803e3d6000fd5b505050506040513d601f19601f82011682018060405250810190610b979190612d90565b905061094f8782878787610ef8565b600061083b8686868686610f3c565b610bbd6118b4565b604051634d5588d160e01b815273__$9089a81766ad36b5061f02dda2535fea35$__90634d5588d190610bf890879087908790600401613c2e565b6103a060405180830381865af4158015610c16573d6000803e3d6000fd5b505050506040513d601f19601f820116820180604052508101906109eb9190613de9565b6000610c9960405180610160016040528060008152602001600081526020016000815260200160008152602001600081526020016000815260200160008152602001600081526020016000815260200160008152602001600081525090565b60405163d0f1ba2d60e01b815273__$8d11bd0e1f48a36101f54755acb1fbe73c$__9063d0f1ba2d90610cdc908c908c908c908c908c908c908c90600401613e06565b61018060405180830381865af4158015610cfa573d6000803e3d6000fd5b505050506040513d601f19601f82011682018060405250810190610d1e9190613e68565b9150915097509795505050505050565b604051634d4b0b2760e11b815260609073__$067717cfa97f6ee4d5722fb1c063c14456$__90639a96164e90610d6e908890889088908890600401613f1c565b600060405180830381865af4158015610d8b573d6000803e3d6000fd5b505050506040513d6000823e601f3d908101601f1916820160405261060a9190810190613f53565b6040516336c5539360e11b815260609073__$067717cfa97f6ee4d5722fb1c063c14456$__90636d8aa72690610df39088908890889088906004016137c7565b600060405180830381865af4158015610e10573d6000803e3d6000fd5b505050506040513d6000823e601f3d908101601f1916820160405261060a9190810190613fe1565b600080610e49868686600187610e67565b90506000610e5b878787600088610e67565b905061094f8183614085565b600080610e7d610e78888887610f67565b610fba565b90506000610e8c88888761102d565b9050811580610e99575080155b15610ea95760009250505061060a565b6000610eb6878787611074565b90506000610ec7610e7883856140ad565b9050600087610edf57610eda82866140c4565b610ee9565b610ee985836140c4565b9b9a5050505050505050505050565b600080610f098787878787156110ad565b905080600003610f1d57600091505061060a565b6000610f30888888600001518888610e67565b90506107a98183611133565b600080610f4a878786610f67565b90506000610f5b8888888888610e67565b90506107a9828261117a565b600080610f7c84604001518560600151611190565b90506000610f95868660000151876040015187866111bf565b90506000610fae878760000151886060015188876111bf565b905061094f81836140eb565b60006001600160ff1b038211156110295760405162461bcd60e51b815260206004820152602860248201527f53616665436173743a2076616c756520646f65736e27742066697420696e2061604482015267371034b73a191a9b60c11b60648201526084015b60405180910390fd5b5090565b60008061104284604001518560600151611190565b9050600061105b86866000015187604001518786611245565b90506000610fae87876000015188606001518887611245565b60008215611095578161108857835161108e565b83602001515b90506109ee565b816110a45783602001516109eb565b50509051919050565b600080836110bf5785606001516110c5565b85604001515b905060006110d4888884611262565b90506000841561110257856110f1578660400151602001516110fb565b8660200151602001515b905061111c565b8561111257604087015151611119565b6020870151515b90505b61112681836140ad565b9998505050505050505050565b60008061114861114285611300565b84611311565b9050600084136111695761115b81610fba565b611164906140fe565b611172565b61117281610fba565b949350505050565b60008161118684610fba565b6104969190614085565b6000816001600160a01b0316836001600160a01b0316146111b25760016111b5565b60025b60ff169392505050565b600081866001600160a01b031663bd02d0f56111dc88888861131f565b6040518263ffffffff1660e01b81526004016111fa91815260200190565b602060405180830381865afa158015611217573d6000803e3d6000fd5b505050506040513d601f19601f8201168201806040525081019061123b9190613ae5565b61083b9190614130565b600081866001600160a01b031663bd02d0f56111dc8888886113b1565b60008061127784604001518560600151611190565b905080856001600160a01b031663bd02d0f56112978760000151876113ee565b6040518263ffffffff1660e01b81526004016112b591815260200190565b602060405180830381865afa1580156112d2573d6000803e3d6000fd5b505050506040513d601f19601f820116820180604052508101906112f69190613ae5565b61060a9190614130565b600080821215611029575060000390565b600061049683836000611475565b6000604051602001611352906020808252600d908201526c13d4115397d2539511549154d5609a1b604082015260600190565b60408051601f198184030181528282528051602091820120908301526001600160a01b038087169183019190915284166060820152821515608082015260a0016040516020818303038152906040528051906020012090509392505050565b6000604051602001611352906020808252601790820152764f50454e5f494e5445524553545f494e5f544f4b454e5360481b604082015260600190565b600060405160200161141f906020808252600b908201526a1413d3d317d05353d5539560aa1b604082015260600190565b60408051601f198184030181528282528051602091820120908301526001600160a01b03808616918301919091528316606082015260800160405160208183030381529060405280519060200120905092915050565b600083600003611487575060006109ee565b81156114a65761108e8468327cb2734119d3b7a9601e1b8560016114bd565b6109eb8468327cb2734119d3b7a9601e1b8561150e565b6000806114cb86868661150e565b905060018360028111156114e1576114e161266a565b1480156114fe5750600084806114f9576114f961411a565b868809115b1561060a5761083b6001826140eb565b60008080600019858709858702925082811083820303915050806000036115485783828161153e5761153e61411a565b04925050506109ee565b80841161158f5760405162461bcd60e51b81526020600482015260156024820152744d6174683a206d756c446976206f766572666c6f7760581b6044820152606401611020565b60008486880960026001871981018816978890046003810283188082028403028082028403028082028403028082028403028082028403029081029092039091026000889003889004909101858311909403939093029303949094049190911702949350505050565b60408051608081018252600080825260208201819052918101829052606081019190915290565b604080516101408101909152600060608083018281526080840183905260a0840183905260c0840183905260e0840192909252610100830181905261012083015281905b81526020016116a16040518060c001604052806000815260200160008152602001600081526020016000815260200160008152602001600081525090565b81526040805160208181019092526000815291015290565b905290565b604080516101808101909152600060608083018281526080840183905260a0840183905260c0840183905260e08401839052610100840183905261012084019290925261014083018190526101608301528190611663565b6040805160c081019091526000606082018181526080830182905260a0830191909152819081526020016116a16040518061012001604052806000815260200160008152602001600081526020016000815260200160008152602001600081526020016000815260200160008152602001600081525090565b6040518060c001604052806117a2611716565b81526020016117af611925565b81526020016117d860405180606001604052806000815260200160008152602001600081525090565b81526020016000815260200160008152602001600081525090565b604080516101408101909152600060608083018281526080840183905260a0840183905260c0840183905260e0840183905261010084019290925261012083015281526020810161189160408051610140810190915280600081526020016000815260200160008152602001600081526020016000815260200160008152602001600081526020016000815260200160008152602001600081525090565b815260408051606081018252600080825260208281018290529282015291015290565b6040518060e001604052806118c76115f8565b815260200160008152602001600081526020016118e2611a6b565b81526020016118ef611a8b565b815260200161191860405180606001604052806000815260200160008152602001600081525090565b8152600060209091015290565b604080516102c0810190915260006101c082018181526101e08301829052610200830182905261022083018290526102408301829052610260830182905261028083018290526102a0830191909152819081526020016119b46040518060c001604052806000815260200160008152602001600081526020016000815260200160008152602001600081525090565b81526020016119e46040518060800160405280600081526020016000815260200160008152602001600081525090565b81526040805160608101825260008082526020828101829052928201529101908152602001611a26604051806040016040528060008152602001600081525090565b81526020016000815260200160008152602001600081526020016000815260200160008152602001600081526020016000815260200160008152602001600081525090565b6040518060400160405280611a7e611ab1565b81526020016116b9611ab1565b6040518060a001604052806000151581526020016000815260200160008152602001611a7e5b604080516080810182526000918101828152606082019290925290819081526020016116b9604051806040016040528060008152602001600081525090565b6001600160a01b0381168114611b0557600080fd5b50565b8035611b1381611af0565b919050565b60008060408385031215611b2b57600080fd5b8235611b3681611af0565b91506020830135611b4681611af0565b809150509250929050565b6001600160a01b03169052565b80516001600160a01b03908116835260208083015182169084015260408083015182169084015260609182015116910152565b608081016104998284611b5e565b60008060408385031215611bb257600080fd5b8235611bbd81611af0565b946020939093013593505050565b600081518084526020808501945080840160005b83811015611c045781516001600160a01b031687529582019590820190600101611bdf565b509495945050505050565b805182526020810151602083015260408101516040830152606081015160608301526080810151608083015260a081015160a08301525050565b602081526000825161010080602085015260018060a01b03808351166101208601528060208401511661014086015280604084015116610160860152506060820151611c99610180860182611b51565b506080820151611cad6101a0860182611b51565b5060a082015160e06101c0860152611cc9610200860182611bcb565b905060c0830151925061011f19858203016101e0860152611cea8184611bcb565b9250506020850151611cff6040860182611c0f565b50604085015180511515858301525b5090949350505050565b634e487b7160e01b600052604160045260246000fd5b604051608081016001600160401b0381118282101715611d5057611d50611d18565b60405290565b604080519081016001600160401b0381118282101715611d5057611d50611d18565b604051606081016001600160401b0381118282101715611d5057611d50611d18565b60405160c081016001600160401b0381118282101715611d5057611d50611d18565b60405160e081016001600160401b0381118282101715611d5057611d50611d18565b60405161012081016001600160401b0381118282101715611d5057611d50611d18565b6040516101c081016001600160401b0381118282101715611d5057611d50611d18565b60405161014081016001600160401b0381118282101715611d5057611d50611d18565b60405161016081016001600160401b0381118282101715611d5057611d50611d18565b604051601f8201601f191681016001600160401b0381118282101715611e9257611e92611d18565b604052919050565b600060808284031215611eac57600080fd5b611eb4611d2e565b90508135611ec181611af0565b81526020820135611ed181611af0565b60208201526040820135611ee481611af0565b60408201526060820135611ef781611af0565b606082015292915050565b600060408284031215611f1457600080fd5b611f1c611d56565b9050813581526020820135602082015292915050565b600060c08284031215611f4457600080fd5b611f4c611d78565b9050611f588383611f02565b8152611f678360408401611f02565b6020820152611f798360808401611f02565b604082015292915050565b60008060008060006101a08688031215611f9d57600080fd5b8535611fa881611af0565b9450611fb78760208801611e9a565b9350611fc68760a08801611f32565b949793965093946101608101359450610180013592915050565b8015158114611b0557600080fd5b600080600080610100858703121561200557600080fd5b843561201081611af0565b935061201f8660208701611e9a565b925061202e8660a08701611f02565b915060e085013561203e81611fe0565b939692955090935050565b602081526000610120835161010080602086015261206a8386018351611b51565b602082015161207d610140870182611b51565b506040820151612091610160870182611b51565b5060608201516120a5610180870182611b51565b5060808201516120b96101a0870182611b51565b5060a08201516120cd6101c0870182611b51565b5060c08201516120e16101e0870182611b51565b5060e0820151836102008701526120fc610240870182611bcb565b9282015186840361011f190161022088015292935061211d90508383611bcb565b9250602086015191506121336040860183611c0f565b604086015180511515868301529150611d0e565b805160018060a01b03808251168452806020830151166020850152806040830151166040850152505060208101518051606084015260208101516080840152604081015160a0840152606081015160c0840152608081015160e084015260a0810151610100818186015260c083015161012086015260e08301516101408601528083015161016086015250505060408101516121e96101808401825115159052565b505050565b6101a081016104998284612147565b6000806000806000806000610180888a03121561221957600080fd5b873561222481611af0565b9650602088013561223481611af0565b95506040880135945061224a8960608a01611f32565b9350610120880135925061014088013561226381611af0565b915061016088013561227481611fe0565b8091505092959891949750929550565b80518252602090810151910152565b8051825260208082015190830152604090810151910152565b6122b7828251612147565b602081810151805180516101a086810191909152928101516001600160a01b039081166101c08701526040820151166101e08601526060810151610200860152608081015161022086015260a081015161024086015260c081015161026086015260e001516102808501529060208201516123366102a0860182611c0f565b506040828101518051610360870152602080820151610380880152818301516103a08801526060918201516103c08801529084015180516001600160a01b03166103e088015290810151610400870152015161042085015260808201516123a1610440860182612284565b5060a082015161048085015260c08201516104a085015260e08201516104c08501526101008201516104e08501526101208201516105008501526101408201516105208501526101608201516105408501526101808201516105608501520151610580830152604081015161241a6105a0840182612293565b506060810151610600830152608081015161062083015260a0015161064090910152565b610660810161049982846122ac565b60006001600160401b0382111561246657612466611d18565b5060051b60200190565b600082601f83011261248157600080fd5b813560206124966124918361244d565b611e6a565b82815260c092830285018201928282019190878511156124b557600080fd5b8387015b858110156124d8576124cb8982611f32565b84529284019281016124b9565b5090979650505050505050565b600080600080600060a086880312156124fd57600080fd5b853561250881611af0565b945060208681013561251981611af0565b945060408701356001600160401b038082111561253557600080fd5b818901915089601f83011261254957600080fd5b81356125576124918261244d565b81815260059190911b8301840190848101908c83111561257657600080fd5b938501935b828510156125945784358252938501939085019061257b565b9750505060608901359250808311156125ac57600080fd5b50506125ba88828901612470565b9250506125c960808701611b08565b90509295509295909350565b6020808252825182820181905260009190848201906040850190845b81811015612618576126048385516122ac565b9284019261066092909201916001016125f1565b50909695505050505050565b6000806000806080858703121561263a57600080fd5b843561264581611af0565b9350602085013561265581611af0565b93969395505050506040820135916060013590565b634e487b7160e01b600052602160045260246000fd5b600881106126905761269061266a565b9052565b600381106126905761269061266a565b6126af828251612680565b60208101516126c16020840182612694565b5060408101516040830152606081015160608301526080810151608083015260a081015160a083015260c081015160c083015260e081015160e08301526101008082015181840152506101208082015181840152505050565b80516101c080845281516001600160a01b0390811691850191909152602082015181166101e08501526040820151166102008401526060810151600091612765610220860183611b51565b6080810151915061277a610240860183611b51565b60a0810151915061278f610260860183611b51565b60c0015160e061028086015290506127ab6102a0850182611bcb565b905060208301516127bf60208601826126a4565b5060408381015180511515610160870152602081015115156101808701529081015115156101a0860152509392505050565b6000602080830181845280855180835260408601915060408160051b870101925083870160005b8281101561284657603f1988860301845261283485835161271a565b94509285019290850190600101612818565b5092979650505050505050565b6000806000806000806101c0878903121561286d57600080fd5b863561287881611af0565b95506128878860208901611e9a565b94506128968860a08901611f32565b9350610160870135925061018087013591506101a08701356128b781611af0565b809150509295509295509295565b6000806000606084860312156128da57600080fd5b83356128e581611af0565b95602085013595506040909401359392505050565b6020808252825182820181905260009190848201906040850190845b8181101561261857612929838551611b5e565b9284019260809290920191600101612916565b60008060008060006101a0868803121561295557600080fd5b853561296081611af0565b945061296f8760208801611e9a565b935061297e8760a08801611f32565b9250610160860135915061018086013561299781611af0565b809150509295509295909350565b600080600080600061012086880312156129be57600080fd5b85356129c981611af0565b94506129d88760208801611e9a565b93506129e78760a08801611f02565b925060e08601356129f781611fe0565b915061010086013561299781611fe0565b602081526000610496602083018461271a565b60008060008060006101408688031215612a3457600080fd5b8535612a3f81611af0565b94506020860135612a4f81611af0565b9350612a5e8760408801611f32565b9250610100860135612a6f81611fe0565b915061012086013561299781611fe0565b60008060006101008486031215612a9657600080fd5b8335612aa181611af0565b9250612ab08560208601611f32565b915060e0840135612ac081611af0565b809150509250925092565b612ad6828251612284565b60208101516121e96040840182612284565b612af3828251611b5e565b60208101516080830152604081015160a08301526060810151612b1a60c084018251612acb565b60200151612b2c610140840182612acb565b506080810151805115156101c084015260208101516101e084015260408101516102008401526060810151612b65610220850182612acb565b5060800151612b786102a0840182612acb565b5060a0810151612b8c610320840182612293565b5060c0015115156103809190910152565b6103a081016104998284612ae8565b60008060008060008060006101a0888a031215612bc857600080fd5b8735612bd381611af0565b9650612be28960208a01611e9a565b9550612bf18960a08a01611f02565b9450612c008960e08a01611f02565b9350612c10896101208a01611f02565b9250610160880135915061018088013561227481611fe0565b60008060008060808587031215612c3f57600080fd5b8435612c4a81611af0565b935060208501356001600160401b03811115612c6557600080fd5b612c7187828801612470565b949794965050505060408301359260600135919050565b6020808252825182820181905260009190848201906040850190845b8181101561261857612cb7838551612ae8565b928401926103a09290920191600101612ca4565b6020808252825182820181905260009190848201906040850190845b8181101561261857612cfa838551612147565b928401926101a09290920191600101612ce7565b6001600160a01b0392831681529116602082015260400190565b8051611b1381611af0565b600060808284031215612d4557600080fd5b612d4d611d2e565b90508151612d5a81611af0565b81526020820151612d6a81611af0565b60208201526040820151612d7d81611af0565b60408201526060820151611ef781611af0565b600060808284031215612da257600080fd5b6104968383612d33565b6001600160a01b03929092168252602082015260400190565b600082601f830112612dd657600080fd5b81516020612de66124918361244d565b82815260059290921b84018101918181019086841115612e0557600080fd5b8286015b84811015612e29578051612e1c81611af0565b8352918301918301612e09565b509695505050505050565b600060c08284031215612e4657600080fd5b612e4e611d9a565b9050815181526020820151602082015260408201516040820152606082015160608201526080820151608082015260a082015160a082015292915050565b8051611b1381611fe0565b600060208284031215612ea957600080fd5b604051602081016001600160401b0381118282101715612ecb57612ecb611d18565b80604052508091508251612ede81611fe0565b905292915050565b600060208284031215612ef857600080fd5b81516001600160401b0380821115612f0f57600080fd5b908301906101008286031215612f2457600080fd5b612f2c611d78565b825182811115612f3b57600080fd5b830160e08188031215612f4d57600080fd5b612f55611dbc565b612f5e82612d28565b8152612f6c60208301612d28565b6020820152612f7d60408301612d28565b6040820152612f8e60608301612d28565b6060820152612f9f60808301612d28565b608082015260a082015184811115612fb657600080fd5b612fc289828501612dc5565b60a08301525060c082015184811115612fda57600080fd5b612fe689828501612dc5565b60c083015250825250612ffc8660208501612e34565b602082015261300e8660e08501612e97565b604082015295945050505050565b613027828251612284565b60208101516130396040840182612284565b5060408101516121e96080840182612284565b6001600160a01b03861681526101a0810161306a6020830187611b5e565b61307760a083018661301c565b61016082019390935261018001529392505050565b6000806000606084860312156130a157600080fd5b8351925060208401519150604084015190509250925092565b6000602082840312156130cc57600080fd5b81516001600160401b03808211156130e357600080fd5b81840191506101008083870312156130fa57600080fd5b613102611d78565b83518381111561311157600080fd5b8401610120818903121561312457600080fd5b61312c611dde565b61313582612d28565b815261314360208301612d28565b602082015261315460408301612d28565b604082015261316560608301612d28565b606082015261317660808301612d28565b608082015261318760a08301612d28565b60a082015261319860c08301612d28565b60c082015260e0820151858111156131af57600080fd5b6131bb8a828501612dc5565b60e08301525083820151858111156131d257600080fd5b6131de8a828501612dc5565b82860152508252506131f38760208601612e34565b60208201526132058760e08601612e97565b60408201529695505050505050565b60008183036101a081121561322857600080fd5b613230611d78565b9150606081121561324057600080fd5b613248611d78565b835161325381611af0565b8152602084015161326381611af0565b6020820152604084015161327681611af0565b60408201528252610120605f19820181131561329157600080fd5b613299611dde565b9150606084015182526080840151602083015260a0840151604083015260c0840151606083015260e084015160808301526101008085015160a08401528185015160c084015261014085015160e084015261016085015181840152505080602083015250611f79836101808401612e97565b60006101a0828403121561331e57600080fd5b6104968383613214565b6001600160a01b038881168252878116602083015260408201879052610180820190613357606084018861301c565b856101208401528085166101408401525082151561016083015298975050505050505050565b600061010080838503121561339157600080fd5b604051908101906001600160401b03821181831017156133b3576133b3611d18565b81604052809250835181526133ca60208501612d28565b60208201526133db60408501612d28565b6040820152606084015160608201526080840151608082015260a084015160a082015260c084015160c082015260e084015160e0820152505092915050565b60006080828403121561342c57600080fd5b613434611d2e565b90508151815260208201516020820152604082015160408201526060820151606082015292915050565b60006060828403121561347057600080fd5b613478611d78565b9050815161348581611af0565b80825250602082015160208201526040820151604082015292915050565b6000604082840312156134b557600080fd5b6134bd611d56565b9050815181526020820151602082015292915050565b6000606082840312156134e557600080fd5b6134ed611d78565b905081518152602082015160208201526040820151604082015292915050565b600081830361066081121561352157600080fd5b613529611d9a565b91506135358484613214565b82526101a061040061019f198301121561354e57600080fd5b613556611e01565b91506135648582860161337d565b8252613574856102a08601612e34565b602083015261358785610360860161341a565b604083015261359a856103e0860161345e565b60608301526135ad8561044086016134a3565b608083015261048084015160a08301526104a084015160c08301526104c084015160e08301526104e084015161010083015261050084015161012083015261052084015161014083015261054084015161016083015261056084015161018083015261058084015190820152602082015261362c836105a084016134d3565b60408201526106008201516060820152610620820151608082015261064082015160a082015292915050565b6000610660828403121561366b57600080fd5b610496838361350d565b600081518084526020808501945080840160005b83811015611c045761369c87835161301c565b60c0969096019590820190600101613689565b600060a0820160018060a01b03808916845260208189168186015260a0604086015282885180855260c087019150828a01945060005b81811015613701578551835294830194918301916001016136e5565b505085810360608701526137158189613675565b94505050808516608085015250509695505050505050565b6000602080838503121561374057600080fd5b82516001600160401b0381111561375657600080fd5b8301601f8101851361376757600080fd5b80516137756124918261244d565b818152610660918202830184019184820191908884111561379557600080fd5b938501935b838510156137bb576137ac898661350d565b8352938401939185019161379a565b50979650505050505050565b6001600160a01b0394851681529290931660208301526040820152606081019190915260800190565b805160088110611b1357600080fd5b805160038110611b1357600080fd5b6000610140828403121561382157600080fd5b613829611e24565b9050613834826137f0565b8152613842602083016137ff565b602082015260408201516040820152606082015160608201526080820151608082015260a082015160a082015260c082015160c082015260e082015160e082015261010080830151818301525061012080830151818301525092915050565b6000606082840312156138b357600080fd5b6138bb611d78565b905081516138c881611fe0565b815260208201516138d881611fe0565b60208201526040820151611f7981611fe0565b60006101c082840312156138fe57600080fd5b613906611d78565b82519091506001600160401b038082111561392057600080fd5b9083019060e0828603121561393457600080fd5b61393c611dbc565b61394583612d28565b815261395360208401612d28565b602082015261396460408401612d28565b604082015261397560608401612d28565b606082015261398660808401612d28565b608082015261399760a08401612d28565b60a082015260c0830151828111156139ae57600080fd5b6139ba87828601612dc5565b60c0830152508352506139d29050836020840161380e565b6020820152611f798361016084016138a1565b600060208083850312156139f857600080fd5b82516001600160401b0380821115613a0f57600080fd5b818501915085601f830112613a2357600080fd5b8151613a316124918261244d565b81815260059190911b83018401908481019088831115613a5057600080fd5b8585015b83811015613a8857805185811115613a6c5760008081fd5b613a7a8b89838a01016138eb565b845250918601918601613a54565b5098975050505050505050565b6001600160a01b0387811682526101c0820190613ab56020840189611b5e565b613ac260a084018861301c565b85610160840152846101808401528084166101a084015250979650505050505050565b600060208284031215613af757600080fd5b5051919050565b60006020808385031215613b1157600080fd5b82516001600160401b03811115613b2757600080fd5b8301601f81018513613b3857600080fd5b8051613b466124918261244d565b81815260079190911b82018301908381019087831115613b6557600080fd5b928401925b8284101561094f57613b7c8885612d33565b82528482019150608084019350613b6a565b6001600160a01b0386811682526101a0820190613bae6020840188611b5e565b613bbb60a084018761301c565b84610160840152808416610180840152509695505050505050565b60008060408385031215613be957600080fd5b505080516020909101519092909150565b600060208284031215613c0c57600080fd5b81516001600160401b03811115613c2257600080fd5b611172848285016138eb565b6001600160a01b038481168252610100820190613c4e602084018661301c565b80841660e084015250949350505050565b600060808284031215613c7157600080fd5b613c79611d56565b9050613c8583836134a3565b8152613c9483604084016134a3565b602082015292915050565b60006101608284031215613cb257600080fd5b60405160a081016001600160401b0381118282101715613cd457613cd4611d18565b80604052508091508251613ce781611fe0565b808252506020830151602082015260408301516040820152613d0c8460608501613c5f565b6060820152613d1e8460e08501613c5f565b60808201525092915050565b60008183036103a0811215613d3e57600080fd5b613d46611dbc565b9150613d528484612d33565b82526080830151602083015260a0830151604083015261010060bf1982011215613d7b57600080fd5b50613d84611d56565b613d918460c08501613c5f565b8152613da1846101408501613c5f565b60208201526060820152613db9836101c08401613c9f565b6080820152613dcc8361032084016134d3565b60a0820152613dde6103808301612e8c565b60c082015292915050565b60006103a08284031215613dfc57600080fd5b6104968383613d2a565b6001600160a01b03881681526101a08101613e246020830189611b5e565b613e3160a0830188612284565b613e3e60e0830187612284565b613e4c610120830186612284565b8361016083015282151561018083015298975050505050505050565b600080828403610180811215613e7d57600080fd5b8351925061016080601f1983011215613e9557600080fd5b613e9d611e47565b91506020850151825260408501516020830152606085015160408301526080850151606083015260a0850151608083015260c085015160a083015260e085015160c08301526101008086015160e08401526101208087015182850152610140915081870151818501525081860151818401525050809150509250929050565b6001600160a01b0385168152608060208201819052600090613f4090830186613675565b6040830194909452506060015292915050565b60006020808385031215613f6657600080fd5b82516001600160401b03811115613f7c57600080fd5b8301601f81018513613f8d57600080fd5b8051613f9b6124918261244d565b8181526103a09182028301840191848201919088841115613fbb57600080fd5b938501935b838510156137bb57613fd28986613d2a565b83529384019391850191613fc0565b60006020808385031215613ff457600080fd5b82516001600160401b0381111561400a57600080fd5b8301601f8101851361401b57600080fd5b80516140296124918261244d565b8181526101a0918202830184019184820191908884111561404957600080fd5b938501935b838510156137bb576140608986613214565b8352938401939185019161404e565b634e487b7160e01b600052601160045260246000fd5b80820182811260008312801582168215821617156140a5576140a561406f565b505092915050565b80820281158282048414176104995761049961406f565b81810360008312801583831316838312821617156140e4576140e461406f565b5092915050565b808201808211156104995761049961406f565b6000600160ff1b82016141135761411361406f565b5060000390565b634e487b7160e01b600052601260045260246000fd5b60008261414d57634e487b7160e01b600052601260045260246000fd5b50049056fea26469706673582212207dea7896beeea468f25a751e6ffd80b8a2b25537ef43a7a9c8e27cef50d7ce3364736f6c63430008120033",
    "linkReferences": {
        "contracts/deposit/SingleMarketDepositStoreUtils.sol": {
            "SingleMarketDepositStoreUtils": [
                {
                    "length": 20,
                    "start": 1610
                }
            ]
        },
        "contracts/market3/SingleMarketStoreUtils.sol": {
            "SingleMarketStoreUtils": [
                {
                    "length": 20,
                    "start": 1099
                },
                {
                    "length": 20,
                    "start": 1372
                },
                {
                    "length": 20,
                    "start": 2879
                }
            ]
        },
        "contracts/market3/SingleMarketUtils.sol": {
            "SingleMarketUtils": [
                {
                    "length": 20,
                    "start": 3272
                }
            ]
        },
        "contracts/order/SingleMarketOrderStoreUtils.sol": {
            "SingleMarketOrderStoreUtils": [
                {
                    "length": 20,
                    "start": 2763
                }
            ]
        },
        "contracts/position/SingleMarketPositionStoreUtils.sol": {
            "SingleMarketPositionStoreUtils": [
                {
                    "length": 20,
                    "start": 1744
                }
            ]
        },
        "contracts/reader/SingleMarketGlobalReaderDepositUtils.sol": {
            "SingleMarketGlobalReaderDepositUtils": [
                {
                    "length": 20,
                    "start": 2300
                }
            ]
        },
        "contracts/reader/SingleMarketGlobalReaderUtils.sol": {
            "SingleMarketGlobalReaderUtils": [
                {
                    "length": 20,
                    "start": 1875
                },
                {
                    "length": 20,
                    "start": 3052
                }
            ]
        },
        "contracts/reader/SingleMarketGlobalReaderWithdrawalUtils.sol": {
            "SingleMarketGlobalReaderWithdrawalUtils": [
                {
                    "length": 20,
                    "start": 2586
                }
            ]
        },
        "contracts/reader/SingleMarketGlobalUtils.sol": {
            "SingleMarketGlobalUtils": [
                {
                    "length": 20,
                    "start": 1421
                },
                {
                    "length": 20,
                    "start": 2022
                },
                {
                    "length": 20,
                    "start": 2167
                },
                {
                    "length": 20,
                    "start": 2473
                },
                {
                    "length": 20,
                    "start": 3424
                },
                {
                    "length": 20,
                    "start": 3557
                }
            ]
        },
        "contracts/withdrawal/SingleMarketWithdrawalStoreUtils.sol": {
            "SingleMarketWithdrawalStoreUtils": [
                {
                    "length": 20,
                    "start": 1238
                }
            ]
        }
    },
    "deployedLinkReferences": {
        "contracts/deposit/SingleMarketDepositStoreUtils.sol": {
            "SingleMarketDepositStoreUtils": [
                {
                    "length": 20,
                    "start": 1578
                }
            ]
        },
        "contracts/market3/SingleMarketStoreUtils.sol": {
            "SingleMarketStoreUtils": [
                {
                    "length": 20,
                    "start": 1067
                },
                {
                    "length": 20,
                    "start": 1340
                },
                {
                    "length": 20,
                    "start": 2847
                }
            ]
        },
        "contracts/market3/SingleMarketUtils.sol": {
            "SingleMarketUtils": [
                {
                    "length": 20,
                    "start": 3240
                }
            ]
        },
        "contracts/order/SingleMarketOrderStoreUtils.sol": {
            "SingleMarketOrderStoreUtils": [
                {
                    "length": 20,
                    "start": 2731
                }
            ]
        },
        "contracts/position/SingleMarketPositionStoreUtils.sol": {
            "SingleMarketPositionStoreUtils": [
                {
                    "length": 20,
                    "start": 1712
                }
            ]
        },
        "contracts/reader/SingleMarketGlobalReaderDepositUtils.sol": {
            "SingleMarketGlobalReaderDepositUtils": [
                {
                    "length": 20,
                    "start": 2268
                }
            ]
        },
        "contracts/reader/SingleMarketGlobalReaderUtils.sol": {
            "SingleMarketGlobalReaderUtils": [
                {
                    "length": 20,
                    "start": 1843
                },
                {
                    "length": 20,
                    "start": 3020
                }
            ]
        },
        "contracts/reader/SingleMarketGlobalReaderWithdrawalUtils.sol": {
            "SingleMarketGlobalReaderWithdrawalUtils": [
                {
                    "length": 20,
                    "start": 2554
                }
            ]
        },
        "contracts/reader/SingleMarketGlobalUtils.sol": {
            "SingleMarketGlobalUtils": [
                {
                    "length": 20,
                    "start": 1389
                },
                {
                    "length": 20,
                    "start": 1990
                },
                {
                    "length": 20,
                    "start": 2135
                },
                {
                    "length": 20,
                    "start": 2441
                },
                {
                    "length": 20,
                    "start": 3392
                },
                {
                    "length": 20,
                    "start": 3525
                }
            ]
        },
        "contracts/withdrawal/SingleMarketWithdrawalStoreUtils.sol": {
            "SingleMarketWithdrawalStoreUtils": [
                {
                    "length": 20,
                    "start": 1206
                }
            ]
        }
    }
}